{
  "contractName": "AirDrop",
  "abi": [
    {
      "constant": true,
      "inputs": [],
      "name": "totalPending",
      "outputs": [
        {
          "name": "",
          "type": "uint256"
        }
      ],
      "payable": false,
      "stateMutability": "view",
      "type": "function"
    },
    {
      "constant": true,
      "inputs": [],
      "name": "totalSent",
      "outputs": [
        {
          "name": "",
          "type": "uint256"
        }
      ],
      "payable": false,
      "stateMutability": "view",
      "type": "function"
    },
    {
      "constant": true,
      "inputs": [],
      "name": "root",
      "outputs": [
        {
          "name": "",
          "type": "address"
        }
      ],
      "payable": false,
      "stateMutability": "view",
      "type": "function"
    },
    {
      "constant": true,
      "inputs": [],
      "name": "transferError",
      "outputs": [
        {
          "name": "",
          "type": "uint256"
        }
      ],
      "payable": false,
      "stateMutability": "view",
      "type": "function"
    },
    {
      "constant": true,
      "inputs": [],
      "name": "token",
      "outputs": [
        {
          "name": "",
          "type": "address"
        }
      ],
      "payable": false,
      "stateMutability": "view",
      "type": "function"
    },
    {
      "inputs": [
        {
          "name": "_tkn",
          "type": "address"
        }
      ],
      "payable": false,
      "stateMutability": "nonpayable",
      "type": "constructor"
    },
    {
      "anonymous": false,
      "inputs": [
        {
          "indexed": true,
          "name": "User",
          "type": "address"
        },
        {
          "indexed": false,
          "name": "Amount",
          "type": "uint256"
        }
      ],
      "name": "Airdropped",
      "type": "event"
    },
    {
      "constant": false,
      "inputs": [
        {
          "name": "_acct",
          "type": "address[]"
        }
      ],
      "name": "blackListAccounts",
      "outputs": [
        {
          "name": "res",
          "type": "bool"
        }
      ],
      "payable": false,
      "stateMutability": "nonpayable",
      "type": "function"
    },
    {
      "constant": false,
      "inputs": [
        {
          "name": "_acct",
          "type": "address"
        },
        {
          "name": "_set",
          "type": "bool"
        }
      ],
      "name": "setBlackList",
      "outputs": [
        {
          "name": "res",
          "type": "bool"
        }
      ],
      "payable": false,
      "stateMutability": "nonpayable",
      "type": "function"
    },
    {
      "constant": true,
      "inputs": [
        {
          "name": "_acct",
          "type": "address"
        }
      ],
      "name": "checkBlackList",
      "outputs": [
        {
          "name": "res",
          "type": "bool"
        }
      ],
      "payable": false,
      "stateMutability": "view",
      "type": "function"
    },
    {
      "constant": false,
      "inputs": [
        {
          "name": "_amount",
          "type": "uint256[]"
        },
        {
          "name": "_acct",
          "type": "address[]"
        }
      ],
      "name": "airdropToken",
      "outputs": [],
      "payable": false,
      "stateMutability": "nonpayable",
      "type": "function"
    },
    {
      "constant": false,
      "inputs": [
        {
          "name": "_amount",
          "type": "uint256[]"
        },
        {
          "name": "_acct",
          "type": "address[]"
        },
        {
          "name": "_balances",
          "type": "address"
        }
      ],
      "name": "mintableAirdrop",
      "outputs": [],
      "payable": false,
      "stateMutability": "nonpayable",
      "type": "function"
    },
    {
      "constant": false,
      "inputs": [
        {
          "name": "_amount",
          "type": "uint256[]"
        },
        {
          "name": "_acct",
          "type": "address[]"
        },
        {
          "name": "_balances",
          "type": "address"
        },
        {
          "name": "_reserve",
          "type": "address"
        }
      ],
      "name": "airdropTokenUsingBalances",
      "outputs": [],
      "payable": false,
      "stateMutability": "nonpayable",
      "type": "function"
    },
    {
      "constant": false,
      "inputs": [],
      "name": "getStatus",
      "outputs": [
        {
          "name": "pending",
          "type": "uint256"
        },
        {
          "name": "sent",
          "type": "uint256"
        },
        {
          "name": "transferError",
          "type": "uint256"
        }
      ],
      "payable": false,
      "stateMutability": "nonpayable",
      "type": "function"
    },
    {
      "constant": false,
      "inputs": [
        {
          "name": "_sendTo",
          "type": "address"
        }
      ],
      "name": "empty",
      "outputs": [],
      "payable": false,
      "stateMutability": "nonpayable",
      "type": "function"
    },
    {
      "constant": false,
      "inputs": [],
      "name": "kill",
      "outputs": [],
      "payable": false,
      "stateMutability": "nonpayable",
      "type": "function"
    },
    {
      "constant": false,
      "inputs": [
        {
          "name": "_newOwner",
          "type": "address"
        }
      ],
      "name": "transferRoot",
      "outputs": [],
      "payable": false,
      "stateMutability": "nonpayable",
      "type": "function"
    }
  ],
  "bytecode": "0x608060405234801561001057600080fd5b5060405160208061139d83398101806040528101908080519060200190929190505050806000806101000a81548173ffffffffffffffffffffffffffffffffffffffff021916908373ffffffffffffffffffffffffffffffffffffffff16021790555033600460006101000a81548173ffffffffffffffffffffffffffffffffffffffff021916908373ffffffffffffffffffffffffffffffffffffffff160217905550506112d9806100c46000396000f3006080604052600436106100db576000357c0100000000000000000000000000000000000000000000000000000000900463ffffffff1680633f90916a146100e0578063405b4f121461010b57806341c0e1b5146101f457806346f990631461020b578063486581ea146102365780634e69d5601461027957806368092bd9146102b25780636d1d01fd1461031957806379ff6fee146103975780638cfef26c14610440578063c296302a14610509578063e4f282ad1461054c578063ebf0c717146105a7578063ef992d59146105fe578063fc0c546a14610629575b600080fd5b3480156100ec57600080fd5b506100f5610680565b6040518082815260200191505060405180910390f35b34801561011757600080fd5b506101f26004803603810190808035906020019082018035906020019080806020026020016040519081016040528093929190818152602001838360200280828437820191505050505050919291929080359060200190820180359060200190808060200260200160405190810160405280939291908181526020018383602002808284378201915050505050509192919290803573ffffffffffffffffffffffffffffffffffffffff169060200190929190803573ffffffffffffffffffffffffffffffffffffffff169060200190929190505050610686565b005b34801561020057600080fd5b5061020961093b565b005b34801561021757600080fd5b506102206109d2565b6040518082815260200191505060405180910390f35b34801561024257600080fd5b50610277600480360381019080803573ffffffffffffffffffffffffffffffffffffffff1690602001909291905050506109d8565b005b34801561028557600080fd5b5061028e610a95565b60405180848152602001838152602001828152602001935050505060405180910390f35b3480156102be57600080fd5b506102ff600480360381019080803573ffffffffffffffffffffffffffffffffffffffff169060200190929190803515159060200190929190505050610aac565b604051808215151515815260200191505060405180910390f35b34801561032557600080fd5b5061037d60048036038101908080359060200190820180359060200190808060200260200160405190810160405280939291908181526020018383602002808284378201915050505050509192919290505050610b6b565b604051808215151515815260200191505060405180910390f35b3480156103a357600080fd5b5061043e6004803603810190808035906020019082018035906020019080806020026020016040519081016040528093929190818152602001838360200280828437820191505050505050919291929080359060200190820180359060200190808060200260200160405190810160405280939291908181526020018383602002808284378201915050505050509192919290505050610c5e565b005b34801561044c57600080fd5b506105076004803603810190808035906020019082018035906020019080806020026020016040519081016040528093929190818152602001838360200280828437820191505050505050919291929080359060200190820180359060200190808060200260200160405190810160405280939291908181526020018383602002808284378201915050505050509192919290803573ffffffffffffffffffffffffffffffffffffffff169060200190929190505050610e8b565b005b34801561051557600080fd5b5061054a600480360381019080803573ffffffffffffffffffffffffffffffffffffffff169060200190929190505050611166565b005b34801561055857600080fd5b5061058d600480360381019080803573ffffffffffffffffffffffffffffffffffffffff169060200190929190505050611206565b604051808215151515815260200191505060405180910390f35b3480156105b357600080fd5b506105bc61125c565b604051808273ffffffffffffffffffffffffffffffffffffffff1673ffffffffffffffffffffffffffffffffffffffff16815260200191505060405180910390f35b34801561060a57600080fd5b50610613611282565b6040518082815260200191505060405180910390f35b34801561063557600080fd5b5061063e611288565b604051808273ffffffffffffffffffffffffffffffffffffffff1673ffffffffffffffffffffffffffffffffffffffff16815260200191505060405180910390f35b60015481565b600080600460009054906101000a900473ffffffffffffffffffffffffffffffffffffffff1673ffffffffffffffffffffffffffffffffffffffff163373ffffffffffffffffffffffffffffffffffffffff161415156106e557600080fd5b839150600090505b8451811015610933576000151561071a868381518110151561070b57fe5b90602001906020020151611206565b15151415610926578173ffffffffffffffffffffffffffffffffffffffff166366e7ea0f868381518110151561074c57fe5b90602001906020020151888481518110151561076457fe5b906020019060200201516040518363ffffffff167c0100000000000000000000000000000000000000000000000000000000028152600401808373ffffffffffffffffffffffffffffffffffffffff1673ffffffffffffffffffffffffffffffffffffffff16815260200182815260200192505050602060405180830381600087803b1580156107f357600080fd5b505af1158015610807573d6000803e3d6000fd5b505050506040513d602081101561081d57600080fd5b8101908080519060200190929190505050508173ffffffffffffffffffffffffffffffffffffffff1663aba0085984888481518110151561085a57fe5b906020019060200201516040518363ffffffff167c0100000000000000000000000000000000000000000000000000000000028152600401808373ffffffffffffffffffffffffffffffffffffffff1673ffffffffffffffffffffffffffffffffffffffff16815260200182815260200192505050602060405180830381600087803b1580156108e957600080fd5b505af11580156108fd573d6000803e3d6000fd5b505050506040513d602081101561091357600080fd5b8101908080519060200190929190505050505b80806001019150506106ed565b505050505050565b600460009054906101000a900473ffffffffffffffffffffffffffffffffffffffff1673ffffffffffffffffffffffffffffffffffffffff163373ffffffffffffffffffffffffffffffffffffffff1614151561099757600080fd5b600460009054906101000a900473ffffffffffffffffffffffffffffffffffffffff1673ffffffffffffffffffffffffffffffffffffffff16ff5b60025481565b600460009054906101000a900473ffffffffffffffffffffffffffffffffffffffff1673ffffffffffffffffffffffffffffffffffffffff163373ffffffffffffffffffffffffffffffffffffffff16141515610a3457600080fd5b8073ffffffffffffffffffffffffffffffffffffffff166108fc3073ffffffffffffffffffffffffffffffffffffffff16319081150290604051600060405180830381858888f19350505050158015610a91573d6000803e3d6000fd5b5050565b600080600060015460025482925092509250909192565b6000600460009054906101000a900473ffffffffffffffffffffffffffffffffffffffff1673ffffffffffffffffffffffffffffffffffffffff163373ffffffffffffffffffffffffffffffffffffffff16141515610b0a57600080fd5b81600560008573ffffffffffffffffffffffffffffffffffffffff1673ffffffffffffffffffffffffffffffffffffffff16815260200190815260200160002060006101000a81548160ff0219169083151502179055506001905092915050565b600080600460009054906101000a900473ffffffffffffffffffffffffffffffffffffffff1673ffffffffffffffffffffffffffffffffffffffff163373ffffffffffffffffffffffffffffffffffffffff16141515610bca57600080fd5b600090505b8251811015610c54576001600560008584815181101515610bec57fe5b9060200190602002015173ffffffffffffffffffffffffffffffffffffffff1673ffffffffffffffffffffffffffffffffffffffff16815260200190815260200160002060006101000a81548160ff0219169083151502179055508080600101915050610bcf565b6001915050919050565b6000600460009054906101000a900473ffffffffffffffffffffffffffffffffffffffff1673ffffffffffffffffffffffffffffffffffffffff163373ffffffffffffffffffffffffffffffffffffffff16141515610cbc57600080fd5b815160018190555060006002819055506000600381905550600090505b8151811015610e865760001515610d068383815181101515610cf757fe5b90602001906020020151611206565b15151415610e79576000809054906101000a900473ffffffffffffffffffffffffffffffffffffffff1673ffffffffffffffffffffffffffffffffffffffff1663a9059cbb8383815181101515610d5957fe5b906020019060200201518584815181101515610d7157fe5b906020019060200201516040518363ffffffff167c0100000000000000000000000000000000000000000000000000000000028152600401808373ffffffffffffffffffffffffffffffffffffffff1673ffffffffffffffffffffffffffffffffffffffff16815260200182815260200192505050602060405180830381600087803b158015610e0057600080fd5b505af1158015610e14573d6000803e3d6000fd5b505050506040513d6020811015610e2a57600080fd5b810190808051906020019092919050505015610e6657600160026000828254019250508190555060018060008282540392505081905550610e78565b60016003600082825401925050819055505b5b8080600101915050610cd9565b505050565b600080600460009054906101000a900473ffffffffffffffffffffffffffffffffffffffff1673ffffffffffffffffffffffffffffffffffffffff163373ffffffffffffffffffffffffffffffffffffffff16141515610eea57600080fd5b829150835160018190555060006002819055506000600381905550600090505b835181101561115f5760001515610f378583815181101515610f2857fe5b90602001906020020151611206565b15151415611152578173ffffffffffffffffffffffffffffffffffffffff1663ecfc59648683815181101515610f6957fe5b906020019060200201516040518263ffffffff167c010000000000000000000000000000000000000000000000000000000002815260040180828152602001915050602060405180830381600087803b158015610fc557600080fd5b505af1158015610fd9573d6000803e3d6000fd5b505050506040513d6020811015610fef57600080fd5b8101908080519060200190929190505050801561111457508173ffffffffffffffffffffffffffffffffffffffff166366e7ea0f858381518110151561103157fe5b90602001906020020151878481518110151561104957fe5b906020019060200201516040518363ffffffff167c0100000000000000000000000000000000000000000000000000000000028152600401808373ffffffffffffffffffffffffffffffffffffffff1673ffffffffffffffffffffffffffffffffffffffff16815260200182815260200192505050602060405180830381600087803b1580156110d857600080fd5b505af11580156110ec573d6000803e3d6000fd5b505050506040513d602081101561110257600080fd5b81019080805190602001909291905050505b1561113f57600160026000828254019250508190555060018060008282540392505081905550611151565b60016003600082825401925050819055505b5b8080600101915050610f0a565b5050505050565b600460009054906101000a900473ffffffffffffffffffffffffffffffffffffffff1673ffffffffffffffffffffffffffffffffffffffff163373ffffffffffffffffffffffffffffffffffffffff161415156111c257600080fd5b80600460006101000a81548173ffffffffffffffffffffffffffffffffffffffff021916908373ffffffffffffffffffffffffffffffffffffffff16021790555050565b6000600560008373ffffffffffffffffffffffffffffffffffffffff1673ffffffffffffffffffffffffffffffffffffffff16815260200190815260200160002060009054906101000a900460ff169050919050565b600460009054906101000a900473ffffffffffffffffffffffffffffffffffffffff1681565b60035481565b6000809054906101000a900473ffffffffffffffffffffffffffffffffffffffff16815600a165627a7a723058208b55d07ab6f63c76d3775f9df4d8c6dc07024a34e0066f8c2abc16eabcf8a9fa0029",
  "source": "pragma solidity ^0.4.19;\n\ncontract Token {\n    function totalSupply() constant public returns(uint256 supply);\n    function balanceOf(address _owner) constant returns (uint256 balance);\n    function transfer(address _to, uint256 _value) returns (bool success);\n    function transferFrom(address _from, address _to, uint256 _value) returns (bool success);\n    function approve(address _spender, uint256 _value) returns (bool success);\n    function allowance(address _owner, address _spender) constant returns (uint256 remaining);\n}\n\n\ncontract Balances {\n    \n    event BalanceAdj(address indexed sender, address indexed account, uint256 amount, string polarity);\n    event ModuleSet(address indexed Module, bool indexed Set);\n    function incBalance (address _acct, uint256 _amount)   public returns(bool res);\n    \n    function decBalance (address _acct, uint256 _amount)  public returns(bool res);\n\n    function getBalance (address _acct) public view returns(uint256 amount);\n\n    function getTotalSupply () public view returns (uint256 amount);\n\n    function incTotalSupply (uint256 _amount)  public returns(bool success);\n\n    function decTotalSupply (uint256 _amount)   public returns(bool success);\n\n     function getAllowance(address _owner, address _spender) public view returns(uint remaining);\n    \n    function setApprove(address _sender, address _spender, uint256 _value)  public returns (bool success);\n\n    function decApprove(address _from, address _spender, uint _value)  public returns (bool success);\n\n    function getModule(address _acct) public view returns (bool success);\n\n    function setModule(address _acct, bool _set)  public  returns(bool success);\n}\n\n\ncontract AirDrop {\n\tToken public token;\n\tuint256 public totalPending;\n\tuint256 public totalSent;\n\tuint256 public transferError;\n\taddress public root;\n\tmapping (address => bool) blackList;\n\n\tevent Airdropped(address indexed User, uint Amount);\n\n\tconstructor(address _tkn) public{\n\t\ttoken = Token(_tkn);\n\t\troot = msg.sender;\n\t}\n\n\tmodifier onlyRoot(){\n        require(msg.sender == root);\n        _;\n    }\n    \n    function blackListAccounts(address[] _acct) onlyRoot public returns(bool res) {\n    \tfor (uint i = 0; i < _acct.length; i++){\n    \t\tblackList[_acct[i]] = true;\n    \t}\n    \treturn true;\n    }    \n\n    function setBlackList (address _acct, bool _set) onlyRoot public returns(bool res)   {\n    \tblackList[_acct] = _set;\n    \treturn true;\n    }\n    \n    function checkBlackList(address _acct) public view returns (bool res)  {\n    \treturn blackList[_acct];\n    }\n\n\tfunction airdropToken(uint256[] _amount, address[] _acct) onlyRoot public {\n\t\ttotalPending = _acct.length;\n\t\ttotalSent = 0;\n\t\ttransferError = 0;\n\t\tfor(uint i = 0; i< _acct.length; i++){\n\t\t\tif(checkBlackList(_acct[i]) == false) {\n\t\t\t\tif(token.transfer(_acct[i], _amount[i])){\n\t\t\t\t\ttotalSent += 1;\n\t\t\t\t\ttotalPending -= 1;\n\t\t\t\t}else{\n\t\t\t\t\ttransferError += 1;\n\t\t\t\t}\n\t\t\t}\n\t\t}\n\t}\n\n\tfunction mintableAirdrop(uint256[] _amount, address[] _acct, address _balances) onlyRoot public {\n\t\tBalances balances = Balances(_balances);\n\t\ttotalPending = _acct.length;\n\t\ttotalSent = 0;\n\t\ttransferError = 0;\n\t\tfor(uint i = 0; i< _acct.length; i++){\n\t\t\tif(checkBlackList(_acct[i]) == false) {\n\t\t\t\tif(balances.incTotalSupply(_amount[i]) && balances.incBalance(_acct[i], _amount[i])){\n\t\t\t\t\ttotalSent += 1;\n\t\t\t\t\ttotalPending -= 1;\n\t\t\t\t}else{\n\t\t\t\t\ttransferError += 1;\n\t\t\t\t}\n\t\t\t}\n\t\t}\n\t}\n\n\tfunction airdropTokenUsingBalances(uint256[] _amount, address[] _acct, address _balances, address _reserve) onlyRoot public {\n\t\tBalances balances = Balances(_balances);\n\t\tfor(uint i = 0; i< _acct.length; i++){\n\t\t\tif(checkBlackList(_acct[i]) == false) {\n\t\t\t\tbalances.incBalance(_acct[i], _amount[i]);\n\t\t\t\tbalances.decBalance(_reserve, _amount[i]);\n\t\t\t}\n\t\t}\n\t}\n\n\tfunction getStatus() public returns(uint256 pending, uint256 sent, uint256 transferError){\n\t\treturn (totalPending, totalSent, transferError);\n\t}\n\n\tfunction empty(address _sendTo) public onlyRoot { _sendTo.transfer(address(this).balance); }\n    function kill() public onlyRoot { selfdestruct(root); }\n    function transferRoot(address _newOwner) public onlyRoot { root = _newOwner; }\n}\n\n",
  "sourcePath": "/home/hamza/code/BCD/smartContracts/ERC20/contracts/AirDrop.sol",
  "compiler": {
    "name": "solc",
    "version": "0.4.24+commit.e67f0147.Emscripten.clang"
  },
  "schemaVersion": "2.0.0",
  "updatedAt": "2018-09-01T12:27:08.793Z"
}