{
  "contractName": "Balances",
  "abi": [
    {
      "constant": true,
      "inputs": [],
      "name": "totalSupply",
      "outputs": [
        {
          "name": "",
          "type": "uint256"
        }
      ],
      "payable": false,
      "stateMutability": "view",
      "type": "function"
    },
    {
      "constant": true,
      "inputs": [],
      "name": "root",
      "outputs": [
        {
          "name": "",
          "type": "address"
        }
      ],
      "payable": false,
      "stateMutability": "view",
      "type": "function"
    },
    {
      "inputs": [],
      "payable": false,
      "stateMutability": "nonpayable",
      "type": "constructor"
    },
    {
      "payable": true,
      "stateMutability": "payable",
      "type": "fallback"
    },
    {
      "anonymous": false,
      "inputs": [
        {
          "indexed": true,
          "name": "sender",
          "type": "address"
        },
        {
          "indexed": true,
          "name": "account",
          "type": "address"
        },
        {
          "indexed": false,
          "name": "amount",
          "type": "uint256"
        },
        {
          "indexed": false,
          "name": "polarity",
          "type": "string"
        }
      ],
      "name": "BalanceAdj",
      "type": "event"
    },
    {
      "anonymous": false,
      "inputs": [
        {
          "indexed": true,
          "name": "Module",
          "type": "address"
        },
        {
          "indexed": true,
          "name": "Set",
          "type": "bool"
        }
      ],
      "name": "ModuleSet",
      "type": "event"
    },
    {
      "constant": false,
      "inputs": [
        {
          "name": "_acct",
          "type": "address"
        },
        {
          "name": "_amount",
          "type": "uint256"
        }
      ],
      "name": "incBalance",
      "outputs": [
        {
          "name": "res",
          "type": "bool"
        }
      ],
      "payable": false,
      "stateMutability": "nonpayable",
      "type": "function"
    },
    {
      "constant": false,
      "inputs": [
        {
          "name": "_acct",
          "type": "address"
        },
        {
          "name": "_amount",
          "type": "uint256"
        }
      ],
      "name": "decBalance",
      "outputs": [
        {
          "name": "res",
          "type": "bool"
        }
      ],
      "payable": false,
      "stateMutability": "nonpayable",
      "type": "function"
    },
    {
      "constant": true,
      "inputs": [
        {
          "name": "_acct",
          "type": "address"
        }
      ],
      "name": "getBalance",
      "outputs": [
        {
          "name": "amount",
          "type": "uint256"
        }
      ],
      "payable": false,
      "stateMutability": "view",
      "type": "function"
    },
    {
      "constant": true,
      "inputs": [],
      "name": "getTotalSupply",
      "outputs": [
        {
          "name": "amount",
          "type": "uint256"
        }
      ],
      "payable": false,
      "stateMutability": "view",
      "type": "function"
    },
    {
      "constant": false,
      "inputs": [
        {
          "name": "_amount",
          "type": "uint256"
        }
      ],
      "name": "incTotalSupply",
      "outputs": [
        {
          "name": "success",
          "type": "bool"
        }
      ],
      "payable": false,
      "stateMutability": "nonpayable",
      "type": "function"
    },
    {
      "constant": false,
      "inputs": [
        {
          "name": "_amount",
          "type": "uint256"
        }
      ],
      "name": "decTotalSupply",
      "outputs": [
        {
          "name": "success",
          "type": "bool"
        }
      ],
      "payable": false,
      "stateMutability": "nonpayable",
      "type": "function"
    },
    {
      "constant": true,
      "inputs": [
        {
          "name": "_owner",
          "type": "address"
        },
        {
          "name": "_spender",
          "type": "address"
        }
      ],
      "name": "getAllowance",
      "outputs": [
        {
          "name": "remaining",
          "type": "uint256"
        }
      ],
      "payable": false,
      "stateMutability": "view",
      "type": "function"
    },
    {
      "constant": false,
      "inputs": [
        {
          "name": "_sender",
          "type": "address"
        },
        {
          "name": "_spender",
          "type": "address"
        },
        {
          "name": "_value",
          "type": "uint256"
        }
      ],
      "name": "setApprove",
      "outputs": [
        {
          "name": "success",
          "type": "bool"
        }
      ],
      "payable": false,
      "stateMutability": "nonpayable",
      "type": "function"
    },
    {
      "constant": false,
      "inputs": [
        {
          "name": "_from",
          "type": "address"
        },
        {
          "name": "_spender",
          "type": "address"
        },
        {
          "name": "_value",
          "type": "uint256"
        }
      ],
      "name": "decApprove",
      "outputs": [
        {
          "name": "success",
          "type": "bool"
        }
      ],
      "payable": false,
      "stateMutability": "nonpayable",
      "type": "function"
    },
    {
      "constant": true,
      "inputs": [
        {
          "name": "_acct",
          "type": "address"
        }
      ],
      "name": "getModule",
      "outputs": [
        {
          "name": "success",
          "type": "bool"
        }
      ],
      "payable": false,
      "stateMutability": "view",
      "type": "function"
    },
    {
      "constant": false,
      "inputs": [
        {
          "name": "_acct",
          "type": "address"
        },
        {
          "name": "_set",
          "type": "bool"
        }
      ],
      "name": "setModule",
      "outputs": [
        {
          "name": "success",
          "type": "bool"
        }
      ],
      "payable": false,
      "stateMutability": "nonpayable",
      "type": "function"
    }
  ],
  "bytecode": "0x608060405234801561001057600080fd5b50336000806101000a81548173ffffffffffffffffffffffffffffffffffffffff021916908373ffffffffffffffffffffffffffffffffffffffff160217905550610d73806100606000396000f3006080604052600436106100c5576000357c0100000000000000000000000000000000000000000000000000000000900463ffffffff1680630af4187d146100ca57806318160ddd1461014157806335e090951461016c57806366e7ea0f146101b157806391ef14b414610216578063aba008591461029b578063b1662d5814610300578063b5de8d4c14610367578063c4e41b22146103c2578063ebf0c717146103ed578063ecfc596414610444578063f8b2cb4f14610489578063fcfdf7c5146104e0575b600080fd5b3480156100d657600080fd5b5061012b600480360381019080803573ffffffffffffffffffffffffffffffffffffffff169060200190929190803573ffffffffffffffffffffffffffffffffffffffff169060200190929190505050610565565b6040518082815260200191505060405180910390f35b34801561014d57600080fd5b506101566105ec565b6040518082815260200191505060405180910390f35b34801561017857600080fd5b50610197600480360381019080803590602001909291905050506105f2565b604051808215151515815260200191505060405180910390f35b3480156101bd57600080fd5b506101fc600480360381019080803573ffffffffffffffffffffffffffffffffffffffff1690602001909291908035906020019092919050505061066c565b604051808215151515815260200191505060405180910390f35b34801561022257600080fd5b50610281600480360381019080803573ffffffffffffffffffffffffffffffffffffffff169060200190929190803573ffffffffffffffffffffffffffffffffffffffff169060200190929190803590602001909291905050506107c2565b604051808215151515815260200191505060405180910390f35b3480156102a757600080fd5b506102e6600480360381019080803573ffffffffffffffffffffffffffffffffffffffff169060200190929190803590602001909291905050506108af565b604051808215151515815260200191505060405180910390f35b34801561030c57600080fd5b5061034d600480360381019080803573ffffffffffffffffffffffffffffffffffffffff169060200190929190803515159060200190929190505050610a05565b604051808215151515815260200191505060405180910390f35b34801561037357600080fd5b506103a8600480360381019080803573ffffffffffffffffffffffffffffffffffffffff169060200190929190505050610b09565b604051808215151515815260200191505060405180910390f35b3480156103ce57600080fd5b506103d7610b5f565b6040518082815260200191505060405180910390f35b3480156103f957600080fd5b50610402610b69565b604051808273ffffffffffffffffffffffffffffffffffffffff1673ffffffffffffffffffffffffffffffffffffffff16815260200191505060405180910390f35b34801561045057600080fd5b5061046f60048036038101908080359060200190929190505050610b8e565b604051808215151515815260200191505060405180910390f35b34801561049557600080fd5b506104ca600480360381019080803573ffffffffffffffffffffffffffffffffffffffff169060200190929190505050610c08565b6040518082815260200191505060405180910390f35b3480156104ec57600080fd5b5061054b600480360381019080803573ffffffffffffffffffffffffffffffffffffffff169060200190929190803573ffffffffffffffffffffffffffffffffffffffff16906020019092919080359060200190929190505050610c51565b604051808215151515815260200191505060405180910390f35b6000600460008473ffffffffffffffffffffffffffffffffffffffff1673ffffffffffffffffffffffffffffffffffffffff16815260200190815260200160002060008373ffffffffffffffffffffffffffffffffffffffff1673ffffffffffffffffffffffffffffffffffffffff16815260200190815260200160002054905092915050565b60015481565b600060011515600360003373ffffffffffffffffffffffffffffffffffffffff1673ffffffffffffffffffffffffffffffffffffffff16815260200190815260200160002060009054906101000a900460ff16151514151561065357600080fd5b8160016000828254039250508190555060019050919050565b600060011515600360003373ffffffffffffffffffffffffffffffffffffffff1673ffffffffffffffffffffffffffffffffffffffff16815260200190815260200160002060009054906101000a900460ff1615151415156106cd57600080fd5b81600260008573ffffffffffffffffffffffffffffffffffffffff1673ffffffffffffffffffffffffffffffffffffffff168152602001908152602001600020600082825401925050819055508273ffffffffffffffffffffffffffffffffffffffff163373ffffffffffffffffffffffffffffffffffffffff167f99affe65171b929cf897471b0e82d82c6cc3406b53fdbc068ea3b174e7713176846040518082815260200180602001828103825260018152602001807f2b000000000000000000000000000000000000000000000000000000000000008152506020019250505060405180910390a36001905092915050565b600060011515600360003373ffffffffffffffffffffffffffffffffffffffff1673ffffffffffffffffffffffffffffffffffffffff16815260200190815260200160002060009054906101000a900460ff16151514151561082357600080fd5b81600460008673ffffffffffffffffffffffffffffffffffffffff1673ffffffffffffffffffffffffffffffffffffffff16815260200190815260200160002060008573ffffffffffffffffffffffffffffffffffffffff1673ffffffffffffffffffffffffffffffffffffffff16815260200190815260200160002081905550600190509392505050565b600060011515600360003373ffffffffffffffffffffffffffffffffffffffff1673ffffffffffffffffffffffffffffffffffffffff16815260200190815260200160002060009054906101000a900460ff16151514151561091057600080fd5b81600260008573ffffffffffffffffffffffffffffffffffffffff1673ffffffffffffffffffffffffffffffffffffffff168152602001908152602001600020600082825403925050819055508273ffffffffffffffffffffffffffffffffffffffff163373ffffffffffffffffffffffffffffffffffffffff167f99affe65171b929cf897471b0e82d82c6cc3406b53fdbc068ea3b174e7713176846040518082815260200180602001828103825260018152602001807f2d000000000000000000000000000000000000000000000000000000000000008152506020019250505060405180910390a36001905092915050565b60008060009054906101000a900473ffffffffffffffffffffffffffffffffffffffff1673ffffffffffffffffffffffffffffffffffffffff163373ffffffffffffffffffffffffffffffffffffffff16141515610a6257600080fd5b81600360008573ffffffffffffffffffffffffffffffffffffffff1673ffffffffffffffffffffffffffffffffffffffff16815260200190815260200160002060006101000a81548160ff0219169083151502179055508115158373ffffffffffffffffffffffffffffffffffffffff167f96bf850214e832f3d463d74cdf933b2aa73175e078496bd11f5e8afaeb2bbb9c60405160405180910390a36001905092915050565b6000600360008373ffffffffffffffffffffffffffffffffffffffff1673ffffffffffffffffffffffffffffffffffffffff16815260200190815260200160002060009054906101000a900460ff169050919050565b6000600154905090565b6000809054906101000a900473ffffffffffffffffffffffffffffffffffffffff1681565b600060011515600360003373ffffffffffffffffffffffffffffffffffffffff1673ffffffffffffffffffffffffffffffffffffffff16815260200190815260200160002060009054906101000a900460ff161515141515610bef57600080fd5b8160016000828254019250508190555060019050919050565b6000600260008373ffffffffffffffffffffffffffffffffffffffff1673ffffffffffffffffffffffffffffffffffffffff168152602001908152602001600020549050919050565b600060011515600360003373ffffffffffffffffffffffffffffffffffffffff1673ffffffffffffffffffffffffffffffffffffffff16815260200190815260200160002060009054906101000a900460ff161515141515610cb257600080fd5b81600460008673ffffffffffffffffffffffffffffffffffffffff1673ffffffffffffffffffffffffffffffffffffffff16815260200190815260200160002060008573ffffffffffffffffffffffffffffffffffffffff1673ffffffffffffffffffffffffffffffffffffffff168152602001908152602001600020600082825403925050819055506001905093925050505600a165627a7a7230582012c15bf2388d86411b717bf0c81eb1ecfdac6af5f4f803174c11546f168848c20029",
  "source": "pragma solidity ^0.4.19;\n\ncontract Balances {\n\taddress public root;\n\tuint256 public totalSupply;\n\n\tmapping (address => uint) balances;\n\tmapping (address => bool) modules;\n\tmapping (address => mapping (address => uint)) allowed;\n\t\n\tevent BalanceAdj(address indexed sender, address indexed account, uint256 amount, string polarity);\n\tevent ModuleSet(address indexed Module, bool indexed Set);\n\n\tmodifier onlyRoot() { \n\t\trequire (msg.sender == root); \n\t\t_; \n\t}\n\t\n\tmodifier onlyModule() { \n\t\trequire (modules[msg.sender] == true); \n\t\t_; \n\t}\n\t\n\tfunction() payable public {\n\t\trevert();\n\t}\n\n\tconstructor() public {\n\t\troot = msg.sender;\n\t}\n\n\tfunction incBalance (address _acct, uint256 _amount)  onlyModule public returns(bool res) {\n\t\tbalances[_acct] += _amount;\n\t\temit BalanceAdj(msg.sender, _acct, _amount, \"+\");\n\t\treturn true;\n\t}\n\t\n\tfunction decBalance (address _acct, uint256 _amount) onlyModule public returns(bool res) {\n\t\tbalances[_acct] -= _amount;\n\t\temit BalanceAdj(msg.sender, _acct, _amount, \"-\");\n\t\treturn true;\n\t}\n\n\tfunction getBalance (address _acct) public view returns(uint256 amount)  {\n\t\treturn balances[_acct];\n\t}\n\n\tfunction getTotalSupply () public view returns (uint256 amount) {\n\t\treturn totalSupply;\n\t}\t\n\n\tfunction incTotalSupply (uint256 _amount) onlyModule public returns(bool success) {\n\t\ttotalSupply += _amount;\n\t\treturn true;\n\t}\n\n\tfunction decTotalSupply (uint256 _amount)  onlyModule public returns(bool success) {\n\t\ttotalSupply -= _amount;\n\t\treturn true;\n\t}\n\n\t function getAllowance(address _owner, address _spender) public view returns(uint remaining){\n\t    return allowed[_owner][_spender];\n\t }\n\t\n\tfunction setApprove(address _sender, address _spender, uint256 _value) onlyModule public returns (bool success) {\n\t\tallowed[_sender][_spender] = _value;\n\t\treturn true;\n\t}\n\n  \tfunction decApprove(address _from, address _spender, uint _value) onlyModule public returns (bool success){\n\t    allowed[_from][_spender] -= _value;\n\t    return true;\n\t }\n\n\tfunction getModule(address _acct) public view returns (bool success){\n\t    return modules[_acct];\n\t}\n\n  \tfunction setModule(address _acct, bool _set) onlyRoot public  returns(bool success){\n\t    modules[_acct] = _set;\n\t    emit ModuleSet(_acct, _set);\n\t    return true;\n\t}\n\t\n\t\n}\n\n",
  "sourcePath": "/home/hamza/code/BCD/smartContracts/ERC20/contracts/Balances.sol",
  "compiler": {
    "name": "solc",
    "version": "0.4.24+commit.e67f0147.Emscripten.clang"
  },
  "schemaVersion": "2.0.0",
  "updatedAt": "2018-09-01T12:27:08.786Z"
}