{
  "contractName": "AirDrop",
  "abi": [
    {
      "constant": true,
      "inputs": [],
      "name": "totalPending",
      "outputs": [
        {
          "name": "",
          "type": "uint256"
        }
      ],
      "payable": false,
      "stateMutability": "view",
      "type": "function"
    },
    {
      "constant": true,
      "inputs": [],
      "name": "totalSent",
      "outputs": [
        {
          "name": "",
          "type": "uint256"
        }
      ],
      "payable": false,
      "stateMutability": "view",
      "type": "function"
    },
    {
      "constant": true,
      "inputs": [],
      "name": "transferError",
      "outputs": [
        {
          "name": "",
          "type": "uint256"
        }
      ],
      "payable": false,
      "stateMutability": "view",
      "type": "function"
    },
    {
      "constant": true,
      "inputs": [],
      "name": "token",
      "outputs": [
        {
          "name": "",
          "type": "address"
        }
      ],
      "payable": false,
      "stateMutability": "view",
      "type": "function"
    },
    {
      "inputs": [
        {
          "name": "_tkn",
          "type": "address"
        },
        {
          "name": "_amount",
          "type": "uint256[]"
        },
        {
          "name": "_acct",
          "type": "address[]"
        }
      ],
      "payable": false,
      "stateMutability": "nonpayable",
      "type": "constructor"
    },
    {
      "constant": false,
      "inputs": [],
      "name": "getStatus",
      "outputs": [
        {
          "name": "pending",
          "type": "uint256"
        },
        {
          "name": "sent",
          "type": "uint256"
        },
        {
          "name": "transferError",
          "type": "uint256"
        }
      ],
      "payable": false,
      "stateMutability": "nonpayable",
      "type": "function"
    }
  ],
  "bytecode": "0x608060405234801561001057600080fd5b50604051610447380380610447833981018060405281019080805190602001909291908051820192919060200180518201929190505050826000806101000a81548173ffffffffffffffffffffffffffffffffffffffff021916908373ffffffffffffffffffffffffffffffffffffffff16021790555080516001819055506100a882826100b0640100000000026401000000009004565b50505061023b565b60008090505b8151811015610236576000809054906101000a900473ffffffffffffffffffffffffffffffffffffffff1673ffffffffffffffffffffffffffffffffffffffff1663a9059cbb838381518110151561010a57fe5b90602001906020020151858481518110151561012257fe5b906020019060200201516040518363ffffffff167c0100000000000000000000000000000000000000000000000000000000028152600401808373ffffffffffffffffffffffffffffffffffffffff1673ffffffffffffffffffffffffffffffffffffffff16815260200182815260200192505050602060405180830381600087803b1580156101b157600080fd5b505af11580156101c5573d6000803e3d6000fd5b505050506040513d60208110156101db57600080fd5b81019080805190602001909291905050501561021757600160026000828254019250508190555060018060008282540392505081905550610229565b60016003600082825401925050819055505b80806001019150506100b6565b505050565b6101fd8061024a6000396000f30060806040526004361061006d576000357c0100000000000000000000000000000000000000000000000000000000900463ffffffff1680633f90916a1461007257806346f990631461009d5780634e69d560146100c8578063ef992d5914610101578063fc0c546a1461012c575b600080fd5b34801561007e57600080fd5b50610087610183565b6040518082815260200191505060405180910390f35b3480156100a957600080fd5b506100b2610189565b6040518082815260200191505060405180910390f35b3480156100d457600080fd5b506100dd61018f565b60405180848152602001838152602001828152602001935050505060405180910390f35b34801561010d57600080fd5b506101166101a6565b6040518082815260200191505060405180910390f35b34801561013857600080fd5b506101416101ac565b604051808273ffffffffffffffffffffffffffffffffffffffff1673ffffffffffffffffffffffffffffffffffffffff16815260200191505060405180910390f35b60015481565b60025481565b600080600060015460025482925092509250909192565b60035481565b6000809054906101000a900473ffffffffffffffffffffffffffffffffffffffff16815600a165627a7a72305820392b35b7168c4519386f3610267d34bf7fd80c218fb8df089402bba47ee6d3d10029",
  "source": "pragma solidity ^0.4.19;\n\n// Abstract contract for the full ERC 20 Token standard\n// https://github.com/ethereum/EIPs/issues/20\npragma solidity ^0.4.8;\n\ncontract Token {\n    function totalSupply() constant public returns(uint256 supply);\n    function balanceOf(address _owner) constant returns (uint256 balance);\n    function transfer(address _to, uint256 _value) returns (bool success);\n    function transferFrom(address _from, address _to, uint256 _value) returns (bool success);\n    function approve(address _spender, uint256 _value) returns (bool success);\n    function allowance(address _owner, address _spender) constant returns (uint256 remaining);\n}\n\n\ncontract AirDrop {\n\tToken public token;\n\tuint256 public totalPending;\n\tuint256 public totalSent;\n\tuint256 public transferError;\n\n\tconstructor(address _tkn, uint256[] _amount, address[] _acct) public{\n\t\ttoken = Token(_tkn);\n\t\ttotalPending = _acct.length;\n\t\tairDropToken(_amount, _acct);\n\t}\n\n\tfunction airDropToken(uint256[] _amount, address[] _acct) internal {\n\t\tfor(uint i = 0; i< _acct.length; i++){\n\t\t\tif(token.transfer(_acct[i], _amount[i])){\n\t\t\t\ttotalSent += 1;\n\t\t\t\ttotalPending -= 1;\n\t\t\t}else{\n\t\t\t\ttransferError += 1;\n\t\t\t}\n\t\t}\n\t}\n\n\tfunction getStatus() public returns(uint256 pending, uint256 sent, uint256 transferError){\n\t\treturn (totalPending, totalSent, transferError);\n\t}\n}\n\n",
  "sourcePath": "/home/hamza/code/BCD/smartContracts/airDrop/contracts/AirDrop.sol",
  "compiler": {
    "name": "solc",
    "version": "0.4.24+commit.e67f0147.Emscripten.clang"
  },
  "schemaVersion": "2.0.0",
  "updatedAt": "2018-07-31T05:56:04.559Z"
}