{
  "contractName": "StandardToken",
  "abi": [
    {
      "constant": true,
      "inputs": [],
      "name": "mGranularity",
      "outputs": [
        {
          "name": "",
          "type": "uint256"
        }
      ],
      "payable": false,
      "stateMutability": "view",
      "type": "function"
    },
    {
      "constant": true,
      "inputs": [],
      "name": "balances",
      "outputs": [
        {
          "name": "",
          "type": "address"
        }
      ],
      "payable": false,
      "stateMutability": "view",
      "type": "function"
    },
    {
      "constant": true,
      "inputs": [],
      "name": "mSymbol",
      "outputs": [
        {
          "name": "",
          "type": "string"
        }
      ],
      "payable": false,
      "stateMutability": "view",
      "type": "function"
    },
    {
      "constant": true,
      "inputs": [],
      "name": "owner",
      "outputs": [
        {
          "name": "",
          "type": "address"
        }
      ],
      "payable": false,
      "stateMutability": "view",
      "type": "function"
    },
    {
      "constant": true,
      "inputs": [],
      "name": "mName",
      "outputs": [
        {
          "name": "",
          "type": "string"
        }
      ],
      "payable": false,
      "stateMutability": "view",
      "type": "function"
    },
    {
      "constant": true,
      "inputs": [],
      "name": "mErc20compatible",
      "outputs": [
        {
          "name": "",
          "type": "bool"
        }
      ],
      "payable": false,
      "stateMutability": "view",
      "type": "function"
    },
    {
      "inputs": [
        {
          "name": "_name",
          "type": "string"
        },
        {
          "name": "_symbol",
          "type": "string"
        },
        {
          "name": "_granularity",
          "type": "uint256"
        },
        {
          "name": "_balances",
          "type": "address"
        }
      ],
      "payable": false,
      "stateMutability": "nonpayable",
      "type": "constructor"
    },
    {
      "anonymous": false,
      "inputs": [
        {
          "indexed": true,
          "name": "operator",
          "type": "address"
        },
        {
          "indexed": true,
          "name": "from",
          "type": "address"
        },
        {
          "indexed": true,
          "name": "to",
          "type": "address"
        },
        {
          "indexed": false,
          "name": "amount",
          "type": "uint256"
        },
        {
          "indexed": false,
          "name": "userData",
          "type": "bytes"
        },
        {
          "indexed": false,
          "name": "operatorData",
          "type": "bytes"
        }
      ],
      "name": "Sent",
      "type": "event"
    },
    {
      "anonymous": false,
      "inputs": [
        {
          "indexed": true,
          "name": "operator",
          "type": "address"
        },
        {
          "indexed": true,
          "name": "tokenHolder",
          "type": "address"
        }
      ],
      "name": "AuthorizedOperator",
      "type": "event"
    },
    {
      "anonymous": false,
      "inputs": [
        {
          "indexed": true,
          "name": "operator",
          "type": "address"
        },
        {
          "indexed": true,
          "name": "tokenHolder",
          "type": "address"
        }
      ],
      "name": "RevokedOperator",
      "type": "event"
    },
    {
      "anonymous": false,
      "inputs": [
        {
          "indexed": true,
          "name": "from",
          "type": "address"
        },
        {
          "indexed": true,
          "name": "to",
          "type": "address"
        },
        {
          "indexed": false,
          "name": "amount",
          "type": "uint256"
        }
      ],
      "name": "Transfer",
      "type": "event"
    },
    {
      "anonymous": false,
      "inputs": [
        {
          "indexed": true,
          "name": "owner",
          "type": "address"
        },
        {
          "indexed": true,
          "name": "spender",
          "type": "address"
        },
        {
          "indexed": false,
          "name": "amount",
          "type": "uint256"
        }
      ],
      "name": "Approval",
      "type": "event"
    },
    {
      "constant": true,
      "inputs": [],
      "name": "name",
      "outputs": [
        {
          "name": "",
          "type": "string"
        }
      ],
      "payable": false,
      "stateMutability": "view",
      "type": "function"
    },
    {
      "constant": true,
      "inputs": [],
      "name": "symbol",
      "outputs": [
        {
          "name": "",
          "type": "string"
        }
      ],
      "payable": false,
      "stateMutability": "view",
      "type": "function"
    },
    {
      "constant": true,
      "inputs": [],
      "name": "granularity",
      "outputs": [
        {
          "name": "",
          "type": "uint256"
        }
      ],
      "payable": false,
      "stateMutability": "view",
      "type": "function"
    },
    {
      "constant": true,
      "inputs": [],
      "name": "totalSupply",
      "outputs": [
        {
          "name": "",
          "type": "uint256"
        }
      ],
      "payable": false,
      "stateMutability": "view",
      "type": "function"
    },
    {
      "constant": true,
      "inputs": [
        {
          "name": "_tokenHolder",
          "type": "address"
        }
      ],
      "name": "balanceOf",
      "outputs": [
        {
          "name": "",
          "type": "uint256"
        }
      ],
      "payable": false,
      "stateMutability": "view",
      "type": "function"
    },
    {
      "constant": false,
      "inputs": [
        {
          "name": "_to",
          "type": "address"
        },
        {
          "name": "_amount",
          "type": "uint256"
        }
      ],
      "name": "send",
      "outputs": [],
      "payable": false,
      "stateMutability": "nonpayable",
      "type": "function"
    },
    {
      "constant": false,
      "inputs": [
        {
          "name": "_to",
          "type": "address"
        },
        {
          "name": "_amount",
          "type": "uint256"
        },
        {
          "name": "_userData",
          "type": "bytes"
        }
      ],
      "name": "send",
      "outputs": [],
      "payable": false,
      "stateMutability": "nonpayable",
      "type": "function"
    },
    {
      "constant": false,
      "inputs": [
        {
          "name": "_operator",
          "type": "address"
        }
      ],
      "name": "authorizeOperator",
      "outputs": [],
      "payable": false,
      "stateMutability": "nonpayable",
      "type": "function"
    },
    {
      "constant": false,
      "inputs": [
        {
          "name": "_operator",
          "type": "address"
        }
      ],
      "name": "revokeOperator",
      "outputs": [],
      "payable": false,
      "stateMutability": "nonpayable",
      "type": "function"
    },
    {
      "constant": true,
      "inputs": [
        {
          "name": "_operator",
          "type": "address"
        },
        {
          "name": "_tokenHolder",
          "type": "address"
        }
      ],
      "name": "isOperatorFor",
      "outputs": [
        {
          "name": "",
          "type": "bool"
        }
      ],
      "payable": false,
      "stateMutability": "view",
      "type": "function"
    },
    {
      "constant": false,
      "inputs": [
        {
          "name": "_from",
          "type": "address"
        },
        {
          "name": "_to",
          "type": "address"
        },
        {
          "name": "_amount",
          "type": "uint256"
        },
        {
          "name": "_userData",
          "type": "bytes"
        },
        {
          "name": "_operatorData",
          "type": "bytes"
        }
      ],
      "name": "operatorSend",
      "outputs": [],
      "payable": false,
      "stateMutability": "nonpayable",
      "type": "function"
    },
    {
      "constant": false,
      "inputs": [],
      "name": "disableERC20",
      "outputs": [],
      "payable": false,
      "stateMutability": "nonpayable",
      "type": "function"
    },
    {
      "constant": false,
      "inputs": [],
      "name": "enableERC20",
      "outputs": [],
      "payable": false,
      "stateMutability": "nonpayable",
      "type": "function"
    },
    {
      "constant": true,
      "inputs": [],
      "name": "decimals",
      "outputs": [
        {
          "name": "",
          "type": "uint8"
        }
      ],
      "payable": false,
      "stateMutability": "view",
      "type": "function"
    },
    {
      "constant": false,
      "inputs": [
        {
          "name": "_to",
          "type": "address"
        },
        {
          "name": "_amount",
          "type": "uint256"
        }
      ],
      "name": "transfer",
      "outputs": [
        {
          "name": "success",
          "type": "bool"
        }
      ],
      "payable": false,
      "stateMutability": "nonpayable",
      "type": "function"
    },
    {
      "constant": false,
      "inputs": [
        {
          "name": "_from",
          "type": "address"
        },
        {
          "name": "_to",
          "type": "address"
        },
        {
          "name": "_amount",
          "type": "uint256"
        }
      ],
      "name": "transferFrom",
      "outputs": [
        {
          "name": "success",
          "type": "bool"
        }
      ],
      "payable": false,
      "stateMutability": "nonpayable",
      "type": "function"
    },
    {
      "constant": false,
      "inputs": [
        {
          "name": "_spender",
          "type": "address"
        },
        {
          "name": "_amount",
          "type": "uint256"
        }
      ],
      "name": "approve",
      "outputs": [
        {
          "name": "success",
          "type": "bool"
        }
      ],
      "payable": false,
      "stateMutability": "nonpayable",
      "type": "function"
    },
    {
      "constant": true,
      "inputs": [
        {
          "name": "_owner",
          "type": "address"
        },
        {
          "name": "_spender",
          "type": "address"
        }
      ],
      "name": "allowance",
      "outputs": [
        {
          "name": "remaining",
          "type": "uint256"
        }
      ],
      "payable": false,
      "stateMutability": "view",
      "type": "function"
    }
  ],
  "bytecode": "0x608060405273991a1bcb077599290d7305493c9a630c20f8b7986000806101000a81548173ffffffffffffffffffffffffffffffffffffffff021916908373ffffffffffffffffffffffffffffffffffffffff1602179055503480156200006557600080fd5b5060405162002e1638038062002e16833981018060405281019080805182019291906020018051820192919060200180519060200190929190805190602001909291905050508360019080519060200190620000c3929190620003c4565b508260029080519060200190620000dc929190620003c4565b5033600460006101000a81548173ffffffffffffffffffffffffffffffffffffffff021916908373ffffffffffffffffffffffffffffffffffffffff16021790555080600560006101000a81548173ffffffffffffffffffffffffffffffffffffffff021916908373ffffffffffffffffffffffffffffffffffffffff1602179055506001600460146101000a81548160ff021916908315150217905550600182101515156200018b57600080fd5b81600381905550620001e26040805190810160405280600a81526020017f4552433230546f6b656e00000000000000000000000000000000000000000000815250306200023c640100000000026401000000009004565b620002326040805190810160405280600b81526020017f455243373737546f6b656e000000000000000000000000000000000000000000815250306200023c640100000000026401000000009004565b5050505062000473565b6000826040518082805190602001908083835b6020831015156200027657805182526020820191506020810190506020830392506200024f565b6001836020036101000a038019825116818451168082178552505050505050905001915050604051809103902090506000809054906101000a900473ffffffffffffffffffffffffffffffffffffffff1673ffffffffffffffffffffffffffffffffffffffff166329965a1d3083856040518463ffffffff167c0100000000000000000000000000000000000000000000000000000000028152600401808473ffffffffffffffffffffffffffffffffffffffff1673ffffffffffffffffffffffffffffffffffffffff16815260200183600019166000191681526020018273ffffffffffffffffffffffffffffffffffffffff1673ffffffffffffffffffffffffffffffffffffffff1681526020019350505050600060405180830381600087803b158015620003a657600080fd5b505af1158015620003bb573d6000803e3d6000fd5b50505050505050565b828054600181600116156101000203166002900490600052602060002090601f016020900481019282601f106200040757805160ff191683800117855562000438565b8280016001018555821562000438579182015b82811115620004375782518255916020019190600101906200041a565b5b5090506200044791906200044b565b5090565b6200047091905b808211156200046c57600081600090555060010162000452565b5090565b90565b61299380620004836000396000f30060806040526004361061013e576000357c0100000000000000000000000000000000000000000000000000000000900463ffffffff16806306fdde0314610143578063070c87f9146101d3578063095ea7b3146101ea57806318160ddd1461024f57806323b872dd1461027a578063313ce567146102ff578063556f0dc71461033057806362ad1b831461035b57806370a0823114610454578063757666d2146104ab5780637bb98a68146104d6578063803ab8d41461052d5780638da5cb5b146105bd5780639069195b14610614578063959b8c3f146106a457806395d89b41146106e75780639bd9bbc614610777578063a9059cbb1461080a578063d03d94b91461086f578063d0679d341461089e578063d95b6371146108eb578063dd62ed3e14610966578063f922f216146109dd578063fad8b32a146109f4575b600080fd5b34801561014f57600080fd5b50610158610a37565b6040518080602001828103825283818151815260200191508051906020019080838360005b8381101561019857808201518184015260208101905061017d565b50505050905090810190601f1680156101c55780820380516001836020036101000a031916815260200191505b509250505060405180910390f35b3480156101df57600080fd5b506101e8610ad9565b005b3480156101f657600080fd5b50610235600480360381019080803573ffffffffffffffffffffffffffffffffffffffff16906020019092919080359060200190929190505050610b91565b604051808215151515815260200191505060405180910390f35b34801561025b57600080fd5b50610264610d52565b6040518082815260200191505060405180910390f35b34801561028657600080fd5b506102e5600480360381019080803573ffffffffffffffffffffffffffffffffffffffff169060200190929190803573ffffffffffffffffffffffffffffffffffffffff16906020019092919080359060200190929190505050610e1a565b604051808215151515815260200191505060405180910390f35b34801561030b57600080fd5b506103146111f4565b604051808260ff1660ff16815260200191505060405180910390f35b34801561033c57600080fd5b50610345611218565b6040518082815260200191505060405180910390f35b34801561036757600080fd5b50610452600480360381019080803573ffffffffffffffffffffffffffffffffffffffff169060200190929190803573ffffffffffffffffffffffffffffffffffffffff16906020019092919080359060200190929190803590602001908201803590602001908080601f0160208091040260200160405190810160405280939291908181526020018383808284378201915050505050509192919290803590602001908201803590602001908080601f0160208091040260200160405190810160405280939291908181526020018383808284378201915050505050509192919290505050611222565b005b34801561046057600080fd5b50610495600480360381019080803573ffffffffffffffffffffffffffffffffffffffff16906020019092919050505061124e565b6040518082815260200191505060405180910390f35b3480156104b757600080fd5b506104c061134f565b6040518082815260200191505060405180910390f35b3480156104e257600080fd5b506104eb611355565b604051808273ffffffffffffffffffffffffffffffffffffffff1673ffffffffffffffffffffffffffffffffffffffff16815260200191505060405180910390f35b34801561053957600080fd5b5061054261137b565b6040518080602001828103825283818151815260200191508051906020019080838360005b83811015610582578082015181840152602081019050610567565b50505050905090810190601f1680156105af5780820380516001836020036101000a031916815260200191505b509250505060405180910390f35b3480156105c957600080fd5b506105d2611419565b604051808273ffffffffffffffffffffffffffffffffffffffff1673ffffffffffffffffffffffffffffffffffffffff16815260200191505060405180910390f35b34801561062057600080fd5b5061062961143f565b6040518080602001828103825283818151815260200191508051906020019080838360005b8381101561066957808201518184015260208101905061064e565b50505050905090810190601f1680156106965780820380516001836020036101000a031916815260200191505b509250505060405180910390f35b3480156106b057600080fd5b506106e5600480360381019080803573ffffffffffffffffffffffffffffffffffffffff1690602001909291905050506114dd565b005b3480156106f357600080fd5b506106fc61160a565b6040518080602001828103825283818151815260200191508051906020019080838360005b8381101561073c578082015181840152602081019050610721565b50505050905090810190601f1680156107695780820380516001836020036101000a031916815260200191505b509250505060405180910390f35b34801561078357600080fd5b50610808600480360381019080803573ffffffffffffffffffffffffffffffffffffffff16906020019092919080359060200190929190803590602001908201803590602001908080601f01602080910402602001604051908101604052809392919081815260200183838082843782019150505050505091929192905050506116ac565b005b34801561081657600080fd5b50610855600480360381019080803573ffffffffffffffffffffffffffffffffffffffff169060200190929190803590602001909291905050506116d1565b604051808215151515815260200191505060405180910390f35b34801561087b57600080fd5b50610884611728565b604051808215151515815260200191505060405180910390f35b3480156108aa57600080fd5b506108e9600480360381019080803573ffffffffffffffffffffffffffffffffffffffff1690602001909291908035906020019092919050505061173b565b005b3480156108f757600080fd5b5061094c600480360381019080803573ffffffffffffffffffffffffffffffffffffffff169060200190929190803573ffffffffffffffffffffffffffffffffffffffff16906020019092919050505061176f565b604051808215151515815260200191505060405180910390f35b34801561097257600080fd5b506109c7600480360381019080803573ffffffffffffffffffffffffffffffffffffffff169060200190929190803573ffffffffffffffffffffffffffffffffffffffff169060200190929190505050611839565b6040518082815260200191505060405180910390f35b3480156109e957600080fd5b506109f261198a565b005b348015610a0057600080fd5b50610a35600480360381019080803573ffffffffffffffffffffffffffffffffffffffff169060200190929190505050611a43565b005b606060018054600181600116156101000203166002900480601f016020809104026020016040519081016040528092919081815260200182805460018160011615610100020316600290048015610acf5780601f10610aa457610100808354040283529160200191610acf565b820191906000526020600020905b815481529060010190602001808311610ab257829003601f168201915b5050505050905090565b600460009054906101000a900473ffffffffffffffffffffffffffffffffffffffff1673ffffffffffffffffffffffffffffffffffffffff163373ffffffffffffffffffffffffffffffffffffffff16141515610b3557600080fd5b6001600460146101000a81548160ff021916908315150217905550610b8f6040805190810160405280600a81526020017f4552433230546f6b656e0000000000000000000000000000000000000000000081525030611b70565b565b6000600460149054906101000a900460ff161515610bae57600080fd5b600560009054906101000a900473ffffffffffffffffffffffffffffffffffffffff1673ffffffffffffffffffffffffffffffffffffffff166391ef14b43385856040518463ffffffff167c0100000000000000000000000000000000000000000000000000000000028152600401808473ffffffffffffffffffffffffffffffffffffffff1673ffffffffffffffffffffffffffffffffffffffff1681526020018373ffffffffffffffffffffffffffffffffffffffff1673ffffffffffffffffffffffffffffffffffffffff1681526020018281526020019350505050602060405180830381600087803b158015610ca757600080fd5b505af1158015610cbb573d6000803e3d6000fd5b505050506040513d6020811015610cd157600080fd5b8101908080519060200190929190505050508273ffffffffffffffffffffffffffffffffffffffff163373ffffffffffffffffffffffffffffffffffffffff167f8c5be1e5ebec7d5bd14f71427d1e84f3dd0314c0f7b2291e5b200ac8c7c3b925846040518082815260200191505060405180910390a36001905092915050565b6000600560009054906101000a900473ffffffffffffffffffffffffffffffffffffffff1673ffffffffffffffffffffffffffffffffffffffff1663c4e41b226040518163ffffffff167c0100000000000000000000000000000000000000000000000000000000028152600401602060405180830381600087803b158015610dda57600080fd5b505af1158015610dee573d6000803e3d6000fd5b505050506040513d6020811015610e0457600080fd5b8101908080519060200190929190505050905090565b6000600460149054906101000a900460ff161515610e3757600080fd5b81600560009054906101000a900473ffffffffffffffffffffffffffffffffffffffff1673ffffffffffffffffffffffffffffffffffffffff1663f8b2cb4f336040518263ffffffff167c0100000000000000000000000000000000000000000000000000000000028152600401808273ffffffffffffffffffffffffffffffffffffffff1673ffffffffffffffffffffffffffffffffffffffff168152602001915050602060405180830381600087803b158015610ef557600080fd5b505af1158015610f09573d6000803e3d6000fd5b505050506040513d6020811015610f1f57600080fd5b810190808051906020019092919050505010158015611069575081600560009054906101000a900473ffffffffffffffffffffffffffffffffffffffff1673ffffffffffffffffffffffffffffffffffffffff16630af4187d33866040518363ffffffff167c0100000000000000000000000000000000000000000000000000000000028152600401808373ffffffffffffffffffffffffffffffffffffffff1673ffffffffffffffffffffffffffffffffffffffff1681526020018273ffffffffffffffffffffffffffffffffffffffff1673ffffffffffffffffffffffffffffffffffffffff16815260200192505050602060405180830381600087803b15801561102b57600080fd5b505af115801561103f573d6000803e3d6000fd5b505050506040513d602081101561105557600080fd5b810190808051906020019092919050505010155b80156110755750600082115b156111e857600560009054906101000a900473ffffffffffffffffffffffffffffffffffffffff1673ffffffffffffffffffffffffffffffffffffffff1663fcfdf7c53385856040518463ffffffff167c0100000000000000000000000000000000000000000000000000000000028152600401808473ffffffffffffffffffffffffffffffffffffffff1673ffffffffffffffffffffffffffffffffffffffff1681526020018373ffffffffffffffffffffffffffffffffffffffff1673ffffffffffffffffffffffffffffffffffffffff1681526020018281526020019350505050602060405180830381600087803b15801561117357600080fd5b505af1158015611187573d6000803e3d6000fd5b505050506040513d602081101561119d57600080fd5b8101908080519060200190929190505050506111df84848460206040519081016040528060008152503360206040519081016040528060008152506000611cf4565b600190506111ed565b600090505b9392505050565b6000600460149054906101000a900460ff16151561121157600080fd5b6012905090565b6000600354905090565b61122c338661176f565b151561123757600080fd5b6112478585858533866001611cf4565b5050505050565b6000600560009054906101000a900473ffffffffffffffffffffffffffffffffffffffff1673ffffffffffffffffffffffffffffffffffffffff1663f8b2cb4f836040518263ffffffff167c0100000000000000000000000000000000000000000000000000000000028152600401808273ffffffffffffffffffffffffffffffffffffffff1673ffffffffffffffffffffffffffffffffffffffff168152602001915050602060405180830381600087803b15801561130d57600080fd5b505af1158015611321573d6000803e3d6000fd5b505050506040513d602081101561133757600080fd5b81019080805190602001909291905050509050919050565b60035481565b600560009054906101000a900473ffffffffffffffffffffffffffffffffffffffff1681565b60028054600181600116156101000203166002900480601f0160208091040260200160405190810160405280929190818152602001828054600181600116156101000203166002900480156114115780601f106113e657610100808354040283529160200191611411565b820191906000526020600020905b8154815290600101906020018083116113f457829003601f168201915b505050505081565b600460009054906101000a900473ffffffffffffffffffffffffffffffffffffffff1681565b60018054600181600116156101000203166002900480601f0160208091040260200160405190810160405280929190818152602001828054600181600116156101000203166002900480156114d55780601f106114aa576101008083540402835291602001916114d5565b820191906000526020600020905b8154815290600101906020018083116114b857829003601f168201915b505050505081565b3373ffffffffffffffffffffffffffffffffffffffff168173ffffffffffffffffffffffffffffffffffffffff161415151561151857600080fd5b6001600660008373ffffffffffffffffffffffffffffffffffffffff1673ffffffffffffffffffffffffffffffffffffffff16815260200190815260200160002060003373ffffffffffffffffffffffffffffffffffffffff1673ffffffffffffffffffffffffffffffffffffffff16815260200190815260200160002060006101000a81548160ff0219169083151502179055503373ffffffffffffffffffffffffffffffffffffffff168173ffffffffffffffffffffffffffffffffffffffff167ff4caeb2d6ca8932a215a353d0703c326ec2d81fc68170f320eb2ab49e9df61f960405160405180910390a350565b606060028054600181600116156101000203166002900480601f0160208091040260200160405190810160405280929190818152602001828054600181600116156101000203166002900480156116a25780601f10611677576101008083540402835291602001916116a2565b820191906000526020600020905b81548152906001019060200180831161168557829003601f168201915b5050505050905090565b6116cc338484843360206040519081016040528060008152506001611cf4565b505050565b6000600460149054906101000a900460ff1615156116ee57600080fd5b61171e33848460206040519081016040528060008152503360206040519081016040528060008152506000611cf4565b6001905092915050565b600460149054906101000a900460ff1681565b61176b33838360206040519081016040528060008152503360206040519081016040528060008152506001611cf4565b5050565b60008173ffffffffffffffffffffffffffffffffffffffff168373ffffffffffffffffffffffffffffffffffffffff1614806118315750600660008473ffffffffffffffffffffffffffffffffffffffff1673ffffffffffffffffffffffffffffffffffffffff16815260200190815260200160002060008373ffffffffffffffffffffffffffffffffffffffff1673ffffffffffffffffffffffffffffffffffffffff16815260200190815260200160002060009054906101000a900460ff165b905092915050565b6000600460149054906101000a900460ff16151561185657600080fd5b600560009054906101000a900473ffffffffffffffffffffffffffffffffffffffff1673ffffffffffffffffffffffffffffffffffffffff16630af4187d84846040518363ffffffff167c0100000000000000000000000000000000000000000000000000000000028152600401808373ffffffffffffffffffffffffffffffffffffffff1673ffffffffffffffffffffffffffffffffffffffff1681526020018273ffffffffffffffffffffffffffffffffffffffff1673ffffffffffffffffffffffffffffffffffffffff16815260200192505050602060405180830381600087803b15801561194757600080fd5b505af115801561195b573d6000803e3d6000fd5b505050506040513d602081101561197157600080fd5b8101908080519060200190929190505050905092915050565b600460009054906101000a900473ffffffffffffffffffffffffffffffffffffffff1673ffffffffffffffffffffffffffffffffffffffff163373ffffffffffffffffffffffffffffffffffffffff161415156119e657600080fd5b6000600460146101000a81548160ff021916908315150217905550611a416040805190810160405280600a81526020017f4552433230546f6b656e000000000000000000000000000000000000000000008152506000611b70565b565b3373ffffffffffffffffffffffffffffffffffffffff168173ffffffffffffffffffffffffffffffffffffffff1614151515611a7e57600080fd5b6000600660008373ffffffffffffffffffffffffffffffffffffffff1673ffffffffffffffffffffffffffffffffffffffff16815260200190815260200160002060003373ffffffffffffffffffffffffffffffffffffffff1673ffffffffffffffffffffffffffffffffffffffff16815260200190815260200160002060006101000a81548160ff0219169083151502179055503373ffffffffffffffffffffffffffffffffffffffff168173ffffffffffffffffffffffffffffffffffffffff167f50546e66e5f44d728365dc3908c63bc5cfeeab470722c1677e3073a6ac294aa160405160405180910390a350565b6000826040518082805190602001908083835b602083101515611ba85780518252602082019150602081019050602083039250611b83565b6001836020036101000a038019825116818451168082178552505050505050905001915050604051809103902090506000809054906101000a900473ffffffffffffffffffffffffffffffffffffffff1673ffffffffffffffffffffffffffffffffffffffff166329965a1d3083856040518463ffffffff167c0100000000000000000000000000000000000000000000000000000000028152600401808473ffffffffffffffffffffffffffffffffffffffff1673ffffffffffffffffffffffffffffffffffffffff16815260200183600019166000191681526020018273ffffffffffffffffffffffffffffffffffffffff1673ffffffffffffffffffffffffffffffffffffffff1681526020019350505050600060405180830381600087803b158015611cd757600080fd5b505af1158015611ceb573d6000803e3d6000fd5b50505050505050565b611cfd85612238565b611d0b838888888887612271565b600073ffffffffffffffffffffffffffffffffffffffff168673ffffffffffffffffffffffffffffffffffffffff1614151515611d4757600080fd5b84600560009054906101000a900473ffffffffffffffffffffffffffffffffffffffff1673ffffffffffffffffffffffffffffffffffffffff1663f8b2cb4f896040518263ffffffff167c0100000000000000000000000000000000000000000000000000000000028152600401808273ffffffffffffffffffffffffffffffffffffffff1673ffffffffffffffffffffffffffffffffffffffff168152602001915050602060405180830381600087803b158015611e0557600080fd5b505af1158015611e19573d6000803e3d6000fd5b505050506040513d6020811015611e2f57600080fd5b810190808051906020019092919050505010151515611e4d57600080fd5b600560009054906101000a900473ffffffffffffffffffffffffffffffffffffffff1673ffffffffffffffffffffffffffffffffffffffff1663aba0085988876040518363ffffffff167c0100000000000000000000000000000000000000000000000000000000028152600401808373ffffffffffffffffffffffffffffffffffffffff1673ffffffffffffffffffffffffffffffffffffffff16815260200182815260200192505050602060405180830381600087803b158015611f1257600080fd5b505af1158015611f26573d6000803e3d6000fd5b505050506040513d6020811015611f3c57600080fd5b810190808051906020019092919050505050600560009054906101000a900473ffffffffffffffffffffffffffffffffffffffff1673ffffffffffffffffffffffffffffffffffffffff166366e7ea0f87876040518363ffffffff167c0100000000000000000000000000000000000000000000000000000000028152600401808373ffffffffffffffffffffffffffffffffffffffff1673ffffffffffffffffffffffffffffffffffffffff16815260200182815260200192505050602060405180830381600087803b15801561201357600080fd5b505af1158015612027573d6000803e3d6000fd5b505050506040513d602081101561203d57600080fd5b81019080805190602001909291905050505061205e838888888887876124db565b8573ffffffffffffffffffffffffffffffffffffffff168773ffffffffffffffffffffffffffffffffffffffff168473ffffffffffffffffffffffffffffffffffffffff167f06b541ddaa720db2b10a4d0cdac39b8d360425fc073085fac19bc82614677987888887604051808481526020018060200180602001838103835285818151815260200191508051906020019080838360005b838110156121115780820151818401526020810190506120f6565b50505050905090810190601f16801561213e5780820380516001836020036101000a031916815260200191505b50838103825284818151815260200191508051906020019080838360005b8381101561217757808201518184015260208101905061215c565b50505050905090810190601f1680156121a45780820380516001836020036101000a031916815260200191505b509550505050505060405180910390a4600460149054906101000a900460ff161561222f578573ffffffffffffffffffffffffffffffffffffffff168773ffffffffffffffffffffffffffffffffffffffff167fddf252ad1be2c89b69c2b068fc378daa952ba7f163c4a11628f55a4df523b3ef876040518082815260200191505060405180910390a35b50505050505050565b806122626003546122546003548561276590919063ffffffff16565b61278090919063ffffffff16565b14151561226e57600080fd5b50565b60006122b2866040805190810160405280601281526020017f455243373737546f6b656e7353656e64657200000000000000000000000000008152506127b3565b905060008173ffffffffffffffffffffffffffffffffffffffff161415156124d2578073ffffffffffffffffffffffffffffffffffffffff166375ab97828888888888886040518763ffffffff167c0100000000000000000000000000000000000000000000000000000000028152600401808773ffffffffffffffffffffffffffffffffffffffff1673ffffffffffffffffffffffffffffffffffffffff1681526020018673ffffffffffffffffffffffffffffffffffffffff1673ffffffffffffffffffffffffffffffffffffffff1681526020018573ffffffffffffffffffffffffffffffffffffffff1673ffffffffffffffffffffffffffffffffffffffff1681526020018481526020018060200180602001838103835285818151815260200191508051906020019080838360005b838110156124015780820151818401526020810190506123e6565b50505050905090810190601f16801561242e5780820380516001836020036101000a031916815260200191505b50838103825284818151815260200191508051906020019080838360005b8381101561246757808201518184015260208101905061244c565b50505050905090810190601f1680156124945780820380516001836020036101000a031916815260200191505b5098505050505050505050600060405180830381600087803b1580156124b957600080fd5b505af11580156124cd573d6000803e3d6000fd5b505050505b50505050505050565b600061251c866040805190810160405280601581526020017f455243373737546f6b656e73526563697069656e7400000000000000000000008152506127b3565b905060008173ffffffffffffffffffffffffffffffffffffffff1614151561273f578073ffffffffffffffffffffffffffffffffffffffff166223de298989898989896040518763ffffffff167c0100000000000000000000000000000000000000000000000000000000028152600401808773ffffffffffffffffffffffffffffffffffffffff1673ffffffffffffffffffffffffffffffffffffffff1681526020018673ffffffffffffffffffffffffffffffffffffffff1673ffffffffffffffffffffffffffffffffffffffff1681526020018573ffffffffffffffffffffffffffffffffffffffff1673ffffffffffffffffffffffffffffffffffffffff1681526020018481526020018060200180602001838103835285818151815260200191508051906020019080838360005b8381101561266a57808201518184015260208101905061264f565b50505050905090810190601f1680156126975780820380516001836020036101000a031916815260200191505b50838103825284818151815260200191508051906020019080838360005b838110156126d05780820151818401526020810190506126b5565b50505050905090810190601f1680156126fd5780820380516001836020036101000a031916815260200191505b5098505050505050505050600060405180830381600087803b15801561272257600080fd5b505af1158015612736573d6000803e3d6000fd5b5050505061275b565b811561275a5761274e8661292b565b151561275957600080fd5b5b5b5050505050505050565b600080828481151561277357fe5b0490508091505092915050565b600080828402905060008414806127a1575082848281151561279e57fe5b04145b15156127a957fe5b8091505092915050565b600080826040518082805190602001908083835b6020831015156127ec57805182526020820191506020810190506020830392506127c7565b6001836020036101000a038019825116818451168082178552505050505050905001915050604051809103902090506000809054906101000a900473ffffffffffffffffffffffffffffffffffffffff1673ffffffffffffffffffffffffffffffffffffffff1663aabbb8ca85836040518363ffffffff167c0100000000000000000000000000000000000000000000000000000000028152600401808373ffffffffffffffffffffffffffffffffffffffff1673ffffffffffffffffffffffffffffffffffffffff168152602001826000191660001916815260200192505050602060405180830381600087803b1580156128e757600080fd5b505af11580156128fb573d6000803e3d6000fd5b505050506040513d602081101561291157600080fd5b810190808051906020019092919050505091505092915050565b60008060008373ffffffffffffffffffffffffffffffffffffffff1614156129565760009150612961565b823b90506000811491505b509190505600a165627a7a72305820d1b6ac50f8629ceca2020328fba21774167a122b7510fbc91d2f73f92443bda20029",
  "source": "/* This Source Code Form is subject to the terms of the Mozilla Public\n * License, v. 2.0. If a copy of the MPL was not distributed with this\n * file, You can obtain one at http://mozilla.org/MPL/2.0/. */\npragma solidity ^0.4.21;\n\n/// @title ERC777 ReferenceToken Contract\n/// @author Jordi Baylina, Jacques Dafflon\n/// @dev This token contract's goal is to give an example implementation\n///  of ERC777 with ERC20 compatible.\n///  This contract does not define any standard, but can be taken as a reference\n///  implementation in case of any ambiguity into the standard\n\nimport \"./ERC820Implementer.sol\";\nimport \"./SafeMath.sol\";\nimport \"./ERC20Token.sol\";\nimport \"./ERC777Token.sol\";\nimport \"./ERC777TokensSender.sol\";\nimport \"./ERC777TokensRecipient.sol\";\nimport \"./Balances.sol\";\n\ncontract StandardToken is ERC20Token, ERC777Token, ERC820Implementer {\n    using SafeMath for uint256;\n\n    string public mName;\n    string public mSymbol;\n    uint256 public mGranularity;\n    address public owner;\n    bool public mErc20compatible;\n\n    // mapping(address => uint) private mBalances;\n    Balances public balances;\n    mapping(address => mapping(address => bool)) private mAuthorized;\n    // mapping(address => mapping(address => uint256)) private mAllowed;\n\n    modifier onlyOwner() { \n        require (msg.sender == owner); \n        _; \n    }\n     constructor(\n        string _name,\n        string _symbol,\n        uint256 _granularity,\n        address _balances\n    )\n        public\n    {\n        mName = _name;\n        mSymbol = _symbol;\n        owner = msg.sender;\n        balances = Balances(_balances);\n        mErc20compatible = true;\n        require(_granularity >= 1);\n        mGranularity = _granularity;\n\n        setInterfaceImplementation(\"ERC20Token\", this);\n        setInterfaceImplementation(\"ERC777Token\", this);\n    }\n    \n    /* -- ERC777 Interface Implementation -- */\n    //\n    /// @return the name of the token\n    function name() public constant returns (string) { return mName; }\n\n    /// @return the symbol of the token\n    function symbol() public constant returns (string) { return mSymbol; }\n\n    /// @return the granularity of the token\n    function granularity() public constant returns (uint256) { return mGranularity; }\n\n    /// @return the total supply of the token\n    function totalSupply() public constant returns (uint256) { return balances.getTotalSupply(); }\n\n    /// @notice Return the account balance of some account\n    /// @param _tokenHolder Address for which the balance is returned\n    /// @return the balance of `_tokenAddress`.\n    function balanceOf(address _tokenHolder) public constant returns (uint256) { return balances.getBalance(_tokenHolder); }\n\n    /// @notice Send `_amount` of tokens to address `_to`\n    /// @param _to The address of the recipient\n    /// @param _amount The number of tokens to be sent\n    function send(address _to, uint256 _amount) public {\n        doSend(msg.sender, _to, _amount, \"\", msg.sender, \"\", true);\n    }\n\n    /// @notice Send `_amount` of tokens to address `_to` passing `_userData` to the recipient\n    /// @param _to The address of the recipient\n    /// @param _amount The number of tokens to be sent\n    function send(address _to, uint256 _amount, bytes _userData) public {\n        doSend(msg.sender, _to, _amount, _userData, msg.sender, \"\", true);\n    }\n\n    /// @notice Authorize a third party `_operator` to manage (send) `msg.sender`'s tokens.\n    /// @param _operator The operator that wants to be Authorized\n    function authorizeOperator(address _operator) public {\n        require(_operator != msg.sender);\n        mAuthorized[_operator][msg.sender] = true;\n        AuthorizedOperator(_operator, msg.sender);\n    }\n\n    /// @notice Revoke a third party `_operator`'s rights to manage (send) `msg.sender`'s tokens.\n    /// @param _operator The operator that wants to be Revoked\n    function revokeOperator(address _operator) public {\n        require(_operator != msg.sender);\n        mAuthorized[_operator][msg.sender] = false;\n        RevokedOperator(_operator, msg.sender);\n    }\n\n    /// @notice Check whether the `_operator` address is allowed to manage the tokens held by `_tokenHolder` address.\n    /// @param _operator address to check if it has the right to manage the tokens\n    /// @param _tokenHolder address which holds the tokens to be managed\n    /// @return `true` if `_operator` is authorized for `_tokenHolder`\n    function isOperatorFor(address _operator, address _tokenHolder) public constant returns (bool) {\n        return _operator == _tokenHolder || mAuthorized[_operator][_tokenHolder];\n    }\n\n    /// @notice Send `_amount` of tokens on behalf of the address `from` to the address `to`.\n    /// @param _from The address holding the tokens being sent\n    /// @param _to The address of the recipient\n    /// @param _amount The number of tokens to be sent\n    /// @param _userData Data generated by the user to be sent to the recipient\n    /// @param _operatorData Data generated by the operator to be sent to the recipient\n    function operatorSend(address _from, address _to, uint256 _amount, bytes _userData, bytes _operatorData) public {\n        require(isOperatorFor(msg.sender, _from));\n        doSend(_from, _to, _amount, _userData, msg.sender, _operatorData, true);\n    }\n\n    /* -- ERC20 Compatible Methods -- */\n    //\n    /// @notice This modifier is applied to erc20 obsolete methods that are\n    ///  implemented only to maintain backwards compatibility. When the erc20\n    ///  compatibility is disabled, this methods will fail.\n    modifier erc20 () {\n        require(mErc20compatible);\n        _;\n    }\n\n    /// @notice Disables the ERC20 interface. This function can only be called\n    ///  by the owner.\n    function disableERC20() public onlyOwner {\n        mErc20compatible = false;\n        setInterfaceImplementation(\"ERC20Token\", 0x0);\n    }\n\n    /// @notice Re enables the ERC20 interface. This function can only be called\n    ///  by the owner.\n    function enableERC20() public onlyOwner {\n        mErc20compatible = true;\n        setInterfaceImplementation(\"ERC20Token\", this);\n    }\n\n    /// @notice For Backwards compatibility\n    /// @return The decimls of the token. Forced to 18 in ERC777.\n    function decimals() public erc20 constant returns (uint8) { return uint8(18); }\n\n    /// @notice ERC20 backwards compatible transfer.\n    /// @param _to The address of the recipient\n    /// @param _amount The number of tokens to be transferred\n    /// @return `true`, if the transfer can't be done, it should fail.\n    function transfer(address _to, uint256 _amount) public erc20 returns (bool success) {\n        doSend(msg.sender, _to, _amount, \"\", msg.sender, \"\", false);\n        return true;\n    }\n\n    /// @notice ERC20 backwards compatible transferFrom.\n    /// @param _from The address holding the tokens being transferred\n    /// @param _to The address of the recipient\n    /// @param _amount The number of tokens to be transferred\n    /// @return `true`, if the transfer can't be done, it should fail.\n    function transferFrom(address _from, address _to, uint256 _amount) public erc20 returns (bool success) {\n        if (balances.getBalance(msg.sender) >= _amount && balances.getAllowance(msg.sender, _to) >= _amount && _amount > 0) {\n            balances.decApprove(msg.sender, _to, _amount);\n            doSend(_from, _to, _amount, \"\", msg.sender, \"\", false);\n            return true;\n        }else{\n            return false;\n        }\n        \n    }\n\n    /// @notice ERC20 backwards compatible approve.\n    ///  `msg.sender` approves `_spender` to spend `_amount` tokens on its behalf.\n    /// @param _spender The address of the account able to transfer the tokens\n    /// @param _amount The number of tokens to be approved for transfer\n    /// @return `true`, if the approve can't be done, it should fail.\n    function approve(address _spender, uint256 _amount) public erc20 returns (bool success) {\n        balances.setApprove(msg.sender, _spender, _amount);\n        Approval(msg.sender, _spender, _amount);\n        return true;\n    }\n\n    /// @notice ERC20 backwards compatible allowance.\n    ///  This function makes it easy to read the `allowed[]` map\n    /// @param _owner The address of the account that owns the token\n    /// @param _spender The address of the account able to transfer the tokens\n    /// @return Amount of remaining tokens of _owner that _spender is allowed\n    ///  to spend\n    function allowance(address _owner, address _spender) public erc20 constant returns (uint256 remaining) {\n        return balances.getAllowance(_owner, _spender);\n    }\n\n    /* -- Helper Functions -- */\n    //\n    /// @notice Internal function that ensures `_amount` is multiple of the granularity\n    /// @param _amount The quantity that want's to be checked\n    function requireMultiple(uint256 _amount) internal view {\n        require(_amount.div(mGranularity).mul(mGranularity) == _amount);\n    }\n\n    /// @notice Check whether an address is a regular address or not.\n    /// @param _addr Address of the contract that has to be checked\n    /// @return `true` if `_addr` is a regular address (not a contract)\n    function isRegularAddress(address _addr) internal constant returns(bool) {\n        if (_addr == 0) { return false; }\n        uint size;\n        assembly { size := extcodesize(_addr) } // solhint-disable-line no-inline-assembly\n        return size == 0;\n    }\n\n    /// @notice Helper function actually performing the sending of tokens.\n    /// @param _from The address holding the tokens being sent\n    /// @param _to The address of the recipient\n    /// @param _amount The number of tokens to be sent\n    /// @param _userData Data generated by the user to be passed to the recipient\n    /// @param _operatorData Data generated by the operator to be passed to the recipient\n    /// @param _preventLocking `true` if you want this function to throw when tokens are sent to a contract not\n    ///  implementing `erc777_tokenHolder`.\n    ///  ERC777 native Send functions MUST set this parameter to `true`, and backwards compatible ERC20 transfer\n    ///  functions SHOULD set this parameter to `false`.\n    function doSend(\n        address _from,\n        address _to,\n        uint256 _amount,\n        bytes _userData,\n        address _operator,\n        bytes _operatorData,\n        bool _preventLocking\n    )\n        private\n    {\n        requireMultiple(_amount);\n\n        callSender(_operator, _from, _to, _amount, _userData, _operatorData);\n\n        require(_to != address(0));          // forbid sending to 0x0 (=burning)\n        require(balances.getBalance(_from) >= _amount); // ensure enough funds\n\n        balances.decBalance(_from, _amount);\n        balances.incBalance(_to, _amount);\n        callRecipient(_operator, _from, _to, _amount, _userData, _operatorData, _preventLocking);\n\n        Sent(_operator, _from, _to, _amount, _userData, _operatorData);\n        if (mErc20compatible) { Transfer(_from, _to, _amount); }\n    }\n\n    /// @notice Helper function that checks for ERC777TokensRecipient on the recipient and calls it.\n    ///  May throw according to `_preventLocking`\n    /// @param _from The address holding the tokens being sent\n    /// @param _to The address of the recipient\n    /// @param _amount The number of tokens to be sent\n    /// @param _userData Data generated by the user to be passed to the recipient\n    /// @param _operatorData Data generated by the operator to be passed to the recipient\n    /// @param _preventLocking `true` if you want this function to throw when tokens are sent to a contract not\n    ///  implementing `ERC777TokensRecipient`.\n    ///  ERC777 native Send functions MUST set this parameter to `true`, and backwards compatible ERC20 transfer\n    ///  functions SHOULD set this parameter to `false`.\n    function callRecipient(\n        address _operator,\n        address _from,\n        address _to,\n        uint256 _amount,\n        bytes _userData,\n        bytes _operatorData,\n        bool _preventLocking\n    ) private {\n        address recipientImplementation = interfaceAddr(_to, \"ERC777TokensRecipient\");\n        if (recipientImplementation != 0) {\n            ERC777TokensRecipient(recipientImplementation).tokensReceived(\n                _operator, _from, _to, _amount, _userData, _operatorData);\n        } else if (_preventLocking) {\n            require(isRegularAddress(_to));\n        }\n    }\n\n    /// @notice Helper function that checks for ERC777TokensSender on the sender and calls it.\n    ///  May throw according to `_preventLocking`\n    /// @param _from The address holding the tokens being sent\n    /// @param _to The address of the recipient\n    /// @param _amount The amount of tokens to be sent\n    /// @param _userData Data generated by the user to be passed to the recipient\n    /// @param _operatorData Data generated by the operator to be passed to the recipient\n    ///  implementing `ERC777TokensSender`.\n    ///  ERC777 native Send functions MUST set this parameter to `true`, and backwards compatible ERC20 transfer\n    ///  functions SHOULD set this parameter to `false`.\n    function callSender(\n        address _operator,\n        address _from,\n        address _to,\n        uint256 _amount,\n        bytes _userData,\n        bytes _operatorData\n    ) private {\n        address senderImplementation = interfaceAddr(_from, \"ERC777TokensSender\");\n        if (senderImplementation != 0) {\n            ERC777TokensSender(senderImplementation).tokensToSend(\n                _operator, _from, _to, _amount, _userData, _operatorData);\n        }\n    }\n}\n",
  "sourcePath": "/home/hamza/code/BCD/smartContracts/ERC777/contracts/StandardToken.sol",
  "compiler": {
    "name": "solc",
    "version": "0.4.24+commit.e67f0147.Emscripten.clang"
  },
  "schemaVersion": "2.0.0",
  "updatedAt": "2018-07-18T07:07:52.245Z"
}