{
  "contractName": "TokensSender",
  "abi": [
    {
      "constant": true,
      "inputs": [],
      "name": "owner",
      "outputs": [
        {
          "name": "",
          "type": "address"
        }
      ],
      "payable": false,
      "stateMutability": "view",
      "type": "function"
    },
    {
      "constant": true,
      "inputs": [],
      "name": "notified",
      "outputs": [
        {
          "name": "",
          "type": "bool"
        }
      ],
      "payable": false,
      "stateMutability": "view",
      "type": "function"
    },
    {
      "inputs": [
        {
          "name": "_setInterface",
          "type": "bool"
        }
      ],
      "payable": false,
      "stateMutability": "nonpayable",
      "type": "constructor"
    },
    {
      "constant": false,
      "inputs": [
        {
          "name": "operator",
          "type": "address"
        },
        {
          "name": "from",
          "type": "address"
        },
        {
          "name": "to",
          "type": "address"
        },
        {
          "name": "amount",
          "type": "uint256"
        },
        {
          "name": "userData",
          "type": "bytes"
        },
        {
          "name": "operatorData",
          "type": "bytes"
        }
      ],
      "name": "tokensToSend",
      "outputs": [],
      "payable": false,
      "stateMutability": "nonpayable",
      "type": "function"
    },
    {
      "constant": false,
      "inputs": [],
      "name": "acceptTokensToSend",
      "outputs": [],
      "payable": false,
      "stateMutability": "nonpayable",
      "type": "function"
    },
    {
      "constant": false,
      "inputs": [],
      "name": "rejectTokensToSend",
      "outputs": [],
      "payable": false,
      "stateMutability": "nonpayable",
      "type": "function"
    },
    {
      "constant": true,
      "inputs": [
        {
          "name": "addr",
          "type": "address"
        },
        {
          "name": "interfaceHash",
          "type": "bytes32"
        }
      ],
      "name": "canImplementInterfaceForAddress",
      "outputs": [
        {
          "name": "",
          "type": "bytes32"
        }
      ],
      "payable": false,
      "stateMutability": "view",
      "type": "function"
    }
  ],
  "bytecode": "0x608060405273991a1bcb077599290d7305493c9a630c20f8b7986000806101000a81548173ffffffffffffffffffffffffffffffffffffffff021916908373ffffffffffffffffffffffffffffffffffffffff16021790555034801561006457600080fd5b506040516020806107768339810180604052810190808051906020019092919050505080156100dc576100db6040805190810160405280601281526020017f455243373737546f6b656e7353656e646572000000000000000000000000000081525030610158640100000000026401000000009004565b5b6001600060146101000a81548160ff02191690831515021790555033600160006101000a81548173ffffffffffffffffffffffffffffffffffffffff021916908373ffffffffffffffffffffffffffffffffffffffff16021790555060008060156101000a81548160ff021916908315150217905550506102dc565b6000826040518082805190602001908083835b602083101515610190578051825260208201915060208101905060208303925061016b565b6001836020036101000a038019825116818451168082178552505050505050905001915050604051809103902090506000809054906101000a900473ffffffffffffffffffffffffffffffffffffffff1673ffffffffffffffffffffffffffffffffffffffff166329965a1d3083856040518463ffffffff167c0100000000000000000000000000000000000000000000000000000000028152600401808473ffffffffffffffffffffffffffffffffffffffff1673ffffffffffffffffffffffffffffffffffffffff16815260200183600019166000191681526020018273ffffffffffffffffffffffffffffffffffffffff1673ffffffffffffffffffffffffffffffffffffffff1681526020019350505050600060405180830381600087803b1580156102bf57600080fd5b505af11580156102d3573d6000803e3d6000fd5b50505050505050565b61048b806102eb6000396000f300608060405260043610610078576000357c0100000000000000000000000000000000000000000000000000000000900463ffffffff1680632522671b1461007d57806375ab9782146100945780637c907597146101ad5780638da5cb5b146101c4578063f00832501461021b578063f438da1e14610288575b600080fd5b34801561008957600080fd5b506100926102b7565b005b3480156100a057600080fd5b506101ab600480360381019080803573ffffffffffffffffffffffffffffffffffffffff169060200190929190803573ffffffffffffffffffffffffffffffffffffffff169060200190929190803573ffffffffffffffffffffffffffffffffffffffff16906020019092919080359060200190929190803590602001908201803590602001908080601f0160208091040260200160405190810160405280939291908181526020018383808284378201915050505050509192919290803590602001908201803590602001908080601f016020809104026020016040519081016040528093929190818152602001838380828437820191505050505050919291929050505061032f565b005b3480156101b957600080fd5b506101c261036d565b005b3480156101d057600080fd5b506101d96103e6565b604051808273ffffffffffffffffffffffffffffffffffffffff1673ffffffffffffffffffffffffffffffffffffffff16815260200191505060405180910390f35b34801561022757600080fd5b5061026a600480360381019080803573ffffffffffffffffffffffffffffffffffffffff169060200190929190803560001916906020019092919050505061040c565b60405180826000191660001916815260200191505060405180910390f35b34801561029457600080fd5b5061029d61044c565b604051808215151515815260200191505060405180910390f35b600160009054906101000a900473ffffffffffffffffffffffffffffffffffffffff1673ffffffffffffffffffffffffffffffffffffffff163373ffffffffffffffffffffffffffffffffffffffff1614151561031357600080fd5b60008060146101000a81548160ff021916908315150217905550565b600060149054906101000a900460ff16151561034a57600080fd5b6001600060156101000a81548160ff021916908315150217905550505050505050565b600160009054906101000a900473ffffffffffffffffffffffffffffffffffffffff1673ffffffffffffffffffffffffffffffffffffffff163373ffffffffffffffffffffffffffffffffffffffff161415156103c957600080fd5b6001600060146101000a81548160ff021916908315150217905550565b600160009054906101000a900473ffffffffffffffffffffffffffffffffffffffff1681565b600060405180807f4552433832305f4143434550545f4d414749430000000000000000000000000081525060130190506040518091039020905092915050565b600060159054906101000a900460ff16815600a165627a7a72305820c7164b89fe1589047eca4d533a4c1cdf17924837f423cbd1abc67705433044d90029",
  "source": "pragma solidity ^0.4.21;\n\nimport { ERC820Implementer } from \"./ERC820Implementer.sol\";\nimport { ERC820ImplementerInterface } from \"./ERC820ImplementerInterface.sol\";\nimport { ERC777TokensSender } from \"./ERC777TokensSender.sol\";\n\n\ncontract TokensSender is ERC820Implementer, ERC820ImplementerInterface, ERC777TokensSender {\n\n    bool private allowTokensToSend;\n    bool public notified;\n    address public owner;\n\n    function TokensSender(bool _setInterface) public {\n        if (_setInterface) { setInterfaceImplementation(\"ERC777TokensSender\", this); }\n        allowTokensToSend = true;\n        owner = msg.sender;\n        notified = false;\n    }\n    modifier onlyOwner() { \n        require (msg.sender == owner); \n        _; \n    }\n    \n    function tokensToSend(\n        address operator,   // solhint-disable no-unused-vars\n        address from,\n        address to,\n        uint amount,\n        bytes userData,\n        bytes operatorData\n    )  // solhint-enable no-unused-vars\n    public {\n        require(allowTokensToSend);\n        notified = true;\n    }\n\n    function acceptTokensToSend() public onlyOwner { allowTokensToSend = true; }\n\n    function rejectTokensToSend() public onlyOwner { allowTokensToSend = false; }\n\n    // solhint-disable-next-line no-unused-vars\n    function canImplementInterfaceForAddress(address addr, bytes32 interfaceHash) public view returns(bytes32) {\n        return ERC820_ACCEPT_MAGIC;\n    }\n\n}",
  "sourcePath": "/home/hamza/code/BCD/smartContracts/ERC777/contracts/TokensSender.sol",
  "compiler": {
    "name": "solc",
    "version": "0.4.24+commit.e67f0147.Emscripten.clang"
  },
  "schemaVersion": "2.0.0",
  "updatedAt": "2018-07-18T06:39:39.394Z"
}