{
  "contractName": "TokensRecipient",
  "abi": [
    {
      "inputs": [
        {
          "name": "_setInterface",
          "type": "bool"
        },
        {
          "name": "_preventTokenReceived",
          "type": "bool"
        }
      ],
      "payable": false,
      "stateMutability": "nonpayable",
      "type": "constructor"
    },
    {
      "constant": false,
      "inputs": [
        {
          "name": "operator",
          "type": "address"
        },
        {
          "name": "from",
          "type": "address"
        },
        {
          "name": "to",
          "type": "address"
        },
        {
          "name": "amount",
          "type": "uint256"
        },
        {
          "name": "userData",
          "type": "bytes"
        },
        {
          "name": "operatorData",
          "type": "bytes"
        }
      ],
      "name": "tokensReceived",
      "outputs": [],
      "payable": false,
      "stateMutability": "nonpayable",
      "type": "function"
    },
    {
      "constant": true,
      "inputs": [
        {
          "name": "addr",
          "type": "address"
        },
        {
          "name": "interfaceHash",
          "type": "bytes32"
        }
      ],
      "name": "canImplementInterfaceForAddress",
      "outputs": [
        {
          "name": "",
          "type": "bytes32"
        }
      ],
      "payable": false,
      "stateMutability": "view",
      "type": "function"
    }
  ],
  "bytecode": "0x608060405273991a1bcb077599290d7305493c9a630c20f8b7986000806101000a81548173ffffffffffffffffffffffffffffffffffffffff021916908373ffffffffffffffffffffffffffffffffffffffff16021790555034801561006457600080fd5b50604051604080610507833981018060405281019080805190602001909291908051906020019092919050505081156100e6576100e56040805190810160405280601581526020017f455243373737546f6b656e73526563697069656e74000000000000000000000081525030610107640100000000026401000000009004565b5b80600060146101000a81548160ff021916908315150217905550505061028b565b6000826040518082805190602001908083835b60208310151561013f578051825260208201915060208101905060208303925061011a565b6001836020036101000a038019825116818451168082178552505050505050905001915050604051809103902090506000809054906101000a900473ffffffffffffffffffffffffffffffffffffffff1673ffffffffffffffffffffffffffffffffffffffff166329965a1d3083856040518463ffffffff167c0100000000000000000000000000000000000000000000000000000000028152600401808473ffffffffffffffffffffffffffffffffffffffff1673ffffffffffffffffffffffffffffffffffffffff16815260200183600019166000191681526020018273ffffffffffffffffffffffffffffffffffffffff1673ffffffffffffffffffffffffffffffffffffffff1681526020019350505050600060405180830381600087803b15801561026e57600080fd5b505af1158015610282573d6000803e3d6000fd5b50505050505050565b61026d8061029a6000396000f30060806040526004361061004b576000357c0100000000000000000000000000000000000000000000000000000000900463ffffffff16806223de2914610050578063f008325014610169575b600080fd5b34801561005c57600080fd5b50610167600480360381019080803573ffffffffffffffffffffffffffffffffffffffff169060200190929190803573ffffffffffffffffffffffffffffffffffffffff169060200190929190803573ffffffffffffffffffffffffffffffffffffffff16906020019092919080359060200190929190803590602001908201803590602001908080601f0160208091040260200160405190810160405280939291908181526020018383808284378201915050505050509192919290803590602001908201803590602001908080601f01602080910402602001604051908101604052809392919081815260200183838082843782019150505050505091929192905050506101d6565b005b34801561017557600080fd5b506101b8600480360381019080803573ffffffffffffffffffffffffffffffffffffffff1690602001909291908035600019169060200190929190505050610201565b60405180826000191660001916815260200191505060405180910390f35b600060149054906101000a900460ff16156101f957600015156101f857600080fd5b5b505050505050565b600060405180807f4552433832305f4143434550545f4d4147494300000000000000000000000000815250601301905060405180910390209050929150505600a165627a7a723058200a3c55771ab8e656b14938ece0a5a3087427c03c322135b8fd4dc310d5b8732b0029",
  "source": "/* This Source Code Form is subject to the terms of the Mozilla Public\n * License, v. 2.0. If a copy of the MPL was not distributed with this\n * file, You can obtain one at http://mozilla.org/MPL/2.0/. */\npragma solidity ^0.4.21;\n\nimport \"./ERC777TokensRecipient.sol\";\nimport \"./ERC820Implementer.sol\";\nimport \"./ERC820ImplementerInterface.sol\";\n\n\ncontract TokensRecipient is ERC820Implementer, ERC820ImplementerInterface, ERC777TokensRecipient {\n\n    bool private preventTokenReceived;\n\n    function TokensRecipient(bool _setInterface, bool _preventTokenReceived) public {\n        if (_setInterface) { setInterfaceImplementation(\"ERC777TokensRecipient\", this); }\n        preventTokenReceived = _preventTokenReceived;\n    }\n\n    function tokensReceived(\n        address operator,  // solhint-disable no-unused-vars\n        address from,\n        address to,\n        uint amount,\n        bytes userData,\n        bytes operatorData\n    )  // solhint-enable no-unused-vars\n        public\n    {\n        if (preventTokenReceived) { require(false); }\n    }\n\n    // solhint-disable-next-line no-unused-vars\n    function canImplementInterfaceForAddress(address addr, bytes32 interfaceHash) public view returns(bytes32) {\n        return ERC820_ACCEPT_MAGIC;\n    }\n\n}\n",
  "sourcePath": "/home/hamza/code/BCD/smartContracts/ERC777/contracts/TokensRecipient.sol",
  "compiler": {
    "name": "solc",
    "version": "0.4.24+commit.e67f0147.Emscripten.clang"
  },
  "schemaVersion": "2.0.0",
  "updatedAt": "2018-07-18T06:39:39.394Z"
}